{
	"contracts/Demo.sol": {
		"Iterators": {
			"abi": [
				{
					"inputs": [],
					"name": "doWhileLoop",
					"outputs": [
						{
							"internalType": "bool",
							"name": "",
							"type": "bool"
						}
					],
					"stateMutability": "nonpayable",
					"type": "function"
				},
				{
					"inputs": [],
					"name": "forLoop",
					"outputs": [
						{
							"internalType": "bool",
							"name": "",
							"type": "bool"
						}
					],
					"stateMutability": "nonpayable",
					"type": "function"
				},
				{
					"inputs": [],
					"name": "returnResult",
					"outputs": [
						{
							"internalType": "uint256",
							"name": "",
							"type": "uint256"
						},
						{
							"internalType": "uint256",
							"name": "",
							"type": "uint256"
						},
						{
							"internalType": "uint256",
							"name": "",
							"type": "uint256"
						}
					],
					"stateMutability": "view",
					"type": "function"
				},
				{
					"inputs": [],
					"name": "whileLoop",
					"outputs": [
						{
							"internalType": "bool",
							"name": "",
							"type": "bool"
						}
					],
					"stateMutability": "nonpayable",
					"type": "function"
				}
			],
			"devdoc": {
				"kind": "dev",
				"methods": {},
				"version": 1
			},
			"evm": {
				"assembly": "    /* \"contracts/Demo.sol\":5993:6772  contract Iterators{... */\n  mstore(0x40, 0x80)\n  callvalue\n  dup1\n  iszero\n  tag_1\n  jumpi\n  0x00\n  dup1\n  revert\ntag_1:\n  pop\n  dataSize(sub_0)\n  dup1\n  dataOffset(sub_0)\n  0x00\n  codecopy\n  0x00\n  return\nstop\n\nsub_0: assembly {\n        /* \"contracts/Demo.sol\":5993:6772  contract Iterators{... */\n      mstore(0x40, 0x80)\n      callvalue\n      dup1\n      iszero\n      tag_1\n      jumpi\n      0x00\n      dup1\n      revert\n    tag_1:\n      pop\n      jumpi(tag_2, lt(calldatasize, 0x04))\n      shr(0xe0, calldataload(0x00))\n      dup1\n      0x174c9c7e\n      eq\n      tag_3\n      jumpi\n      dup1\n      0x1801a346\n      eq\n      tag_4\n      jumpi\n      dup1\n      0xe7c898ef\n      eq\n      tag_5\n      jumpi\n      dup1\n      0xfc0e6008\n      eq\n      tag_6\n      jumpi\n    tag_2:\n      0x00\n      dup1\n      revert\n        /* \"contracts/Demo.sol\":6293:6498  function doWhileLoop() public returns(bool){... */\n    tag_3:\n      tag_7\n      tag_8\n      jump\t// in\n    tag_7:\n      mload(0x40)\n      tag_9\n      swap2\n      swap1\n      tag_10\n      jump\t// in\n    tag_9:\n      mload(0x40)\n      dup1\n      swap2\n      sub\n      swap1\n      return\n        /* \"contracts/Demo.sol\":6655:6770  function returnResult() public view returns(uint, uint, uint){... */\n    tag_4:\n      tag_11\n      tag_12\n      jump\t// in\n    tag_11:\n      mload(0x40)\n      tag_13\n      swap4\n      swap3\n      swap2\n      swap1\n      tag_14\n      jump\t// in\n    tag_13:\n      mload(0x40)\n      dup1\n      swap2\n      sub\n      swap1\n      return\n        /* \"contracts/Demo.sol\":6099:6286  function whileLoop() public returns (bool){... */\n    tag_5:\n      tag_15\n      tag_16\n      jump\t// in\n    tag_15:\n      mload(0x40)\n      tag_17\n      swap2\n      swap1\n      tag_10\n      jump\t// in\n    tag_17:\n      mload(0x40)\n      dup1\n      swap2\n      sub\n      swap1\n      return\n        /* \"contracts/Demo.sol\":6504:6649  function forLoop() public returns(bool){... */\n    tag_6:\n      tag_18\n      tag_19\n      jump\t// in\n    tag_18:\n      mload(0x40)\n      tag_20\n      swap2\n      swap1\n      tag_10\n      jump\t// in\n    tag_20:\n      mload(0x40)\n      dup1\n      swap2\n      sub\n      swap1\n      return\n        /* \"contracts/Demo.sol\":6293:6498  function doWhileLoop() public returns(bool){... */\n    tag_8:\n        /* \"contracts/Demo.sol\":6331:6335  bool */\n      0x00\n        /* \"contracts/Demo.sol\":6346:6352  uint i */\n      dup1\n        /* \"contracts/Demo.sol\":6355:6356  0 */\n      0x00\n        /* \"contracts/Demo.sol\":6346:6356  uint i = 0 */\n      swap1\n      pop\n        /* \"contracts/Demo.sol\":6379:6380  0 */\n      0x00\n        /* \"contracts/Demo.sol\":6366:6376  doWhileRes */\n      0x01\n        /* \"contracts/Demo.sol\":6366:6380  doWhileRes = 0 */\n      dup2\n      swap1\n      sstore\n      pop\n        /* \"contracts/Demo.sol\":6390:6470  do{... */\n    tag_22:\n        /* \"contracts/Demo.sol\":6406:6416  doWhileRes */\n      0x01\n      0x00\n        /* \"contracts/Demo.sol\":6406:6419  doWhileRes ++ */\n      dup2\n      sload\n      dup1\n      swap3\n      swap2\n      swap1\n      tag_25\n      swap1\n      tag_26\n      jump\t// in\n    tag_25:\n      swap2\n      swap1\n      pop\n      sstore\n      pop\n        /* \"contracts/Demo.sol\":6433:6437  i ++ */\n      dup1\n      dup1\n      tag_27\n      swap1\n      tag_26\n      jump\t// in\n    tag_27:\n      swap2\n      pop\n      pop\n        /* \"contracts/Demo.sol\":6467:6468  5 */\n      0x05\n        /* \"contracts/Demo.sol\":6463:6464  i */\n      dup2\n        /* \"contracts/Demo.sol\":6463:6468  i < 5 */\n      lt\n        /* \"contracts/Demo.sol\":6390:6470  do{... */\n      tag_22\n      jumpi\n        /* \"contracts/Demo.sol\":6487:6491  true */\n      0x01\n        /* \"contracts/Demo.sol\":6479:6491  return  true */\n      swap2\n      pop\n      pop\n        /* \"contracts/Demo.sol\":6293:6498  function doWhileLoop() public returns(bool){... */\n      swap1\n      jump\t// out\n        /* \"contracts/Demo.sol\":6655:6770  function returnResult() public view returns(uint, uint, uint){... */\n    tag_12:\n        /* \"contracts/Demo.sol\":6699:6703  uint */\n      0x00\n        /* \"contracts/Demo.sol\":6705:6709  uint */\n      dup1\n        /* \"contracts/Demo.sol\":6711:6715  uint */\n      0x00\n        /* \"contracts/Demo.sol\":6734:6742  whileRes */\n      dup1\n      sload\n        /* \"contracts/Demo.sol\":6744:6754  doWhileRes */\n      sload(0x01)\n        /* \"contracts/Demo.sol\":6756:6762  forRes */\n      sload(0x02)\n        /* \"contracts/Demo.sol\":6726:6763  return (whileRes, doWhileRes, forRes) */\n      swap3\n      pop\n      swap3\n      pop\n      swap3\n      pop\n        /* \"contracts/Demo.sol\":6655:6770  function returnResult() public view returns(uint, uint, uint){... */\n      swap1\n      swap2\n      swap3\n      jump\t// out\n        /* \"contracts/Demo.sol\":6099:6286  function whileLoop() public returns (bool){... */\n    tag_16:\n        /* \"contracts/Demo.sol\":6136:6140  bool */\n      0x00\n        /* \"contracts/Demo.sol\":6151:6157  uint i */\n      dup1\n        /* \"contracts/Demo.sol\":6160:6161  0 */\n      0x00\n        /* \"contracts/Demo.sol\":6151:6161  uint i = 0 */\n      swap1\n      pop\n        /* \"contracts/Demo.sol\":6182:6183  0 */\n      0x00\n        /* \"contracts/Demo.sol\":6171:6179  whileRes */\n      dup1\n        /* \"contracts/Demo.sol\":6171:6183  whileRes = 0 */\n      dup2\n      swap1\n      sstore\n      pop\n        /* \"contracts/Demo.sol\":6193:6259  while(i < 5){... */\n    tag_30:\n        /* \"contracts/Demo.sol\":6203:6204  5 */\n      0x05\n        /* \"contracts/Demo.sol\":6199:6200  i */\n      dup2\n        /* \"contracts/Demo.sol\":6199:6204  i < 5 */\n      lt\n        /* \"contracts/Demo.sol\":6193:6259  while(i < 5){... */\n      iszero\n      tag_31\n      jumpi\n        /* \"contracts/Demo.sol\":6219:6223  i ++ */\n      dup1\n      dup1\n      tag_32\n      swap1\n      tag_26\n      jump\t// in\n    tag_32:\n      swap2\n      pop\n      pop\n        /* \"contracts/Demo.sol\":6237:6245  whileRes */\n      0x00\n      dup1\n        /* \"contracts/Demo.sol\":6237:6248  whileRes ++ */\n      dup2\n      sload\n      dup1\n      swap3\n      swap2\n      swap1\n      tag_33\n      swap1\n      tag_26\n      jump\t// in\n    tag_33:\n      swap2\n      swap1\n      pop\n      sstore\n      pop\n        /* \"contracts/Demo.sol\":6193:6259  while(i < 5){... */\n      jump(tag_30)\n    tag_31:\n        /* \"contracts/Demo.sol\":6275:6279  true */\n      0x01\n        /* \"contracts/Demo.sol\":6268:6279  return true */\n      swap2\n      pop\n      pop\n        /* \"contracts/Demo.sol\":6099:6286  function whileLoop() public returns (bool){... */\n      swap1\n      jump\t// out\n        /* \"contracts/Demo.sol\":6504:6649  function forLoop() public returns(bool){... */\n    tag_19:\n        /* \"contracts/Demo.sol\":6538:6542  bool */\n      0x00\n        /* \"contracts/Demo.sol\":6557:6563  uint i */\n      dup1\n        /* \"contracts/Demo.sol\":6566:6567  0 */\n      0x00\n        /* \"contracts/Demo.sol\":6557:6567  uint i = 0 */\n      swap1\n      pop\n        /* \"contracts/Demo.sol\":6553:6622  for(uint i = 0; i < 5; i++)... */\n    tag_35:\n        /* \"contracts/Demo.sol\":6573:6574  5 */\n      0x05\n        /* \"contracts/Demo.sol\":6569:6570  i */\n      dup2\n        /* \"contracts/Demo.sol\":6569:6574  i < 5 */\n      lt\n        /* \"contracts/Demo.sol\":6553:6622  for(uint i = 0; i < 5; i++)... */\n      iszero\n      tag_36\n      jumpi\n        /* \"contracts/Demo.sol\":6603:6609  forRes */\n      0x02\n      0x00\n        /* \"contracts/Demo.sol\":6603:6611  forRes++ */\n      dup2\n      sload\n      dup1\n      swap3\n      swap2\n      swap1\n      tag_38\n      swap1\n      tag_26\n      jump\t// in\n    tag_38:\n      swap2\n      swap1\n      pop\n      sstore\n      pop\n        /* \"contracts/Demo.sol\":6576:6579  i++ */\n      dup1\n      dup1\n      tag_39\n      swap1\n      tag_26\n      jump\t// in\n    tag_39:\n      swap2\n      pop\n      pop\n        /* \"contracts/Demo.sol\":6553:6622  for(uint i = 0; i < 5; i++)... */\n      jump(tag_35)\n    tag_36:\n      pop\n        /* \"contracts/Demo.sol\":6638:6642  true */\n      0x01\n        /* \"contracts/Demo.sol\":6631:6642  return true */\n      swap1\n      pop\n        /* \"contracts/Demo.sol\":6504:6649  function forLoop() public returns(bool){... */\n      swap1\n      jump\t// out\n        /* \"#utility.yul\":7:116   */\n    tag_41:\n        /* \"#utility.yul\":88:109   */\n      tag_43\n        /* \"#utility.yul\":103:108   */\n      dup2\n        /* \"#utility.yul\":88:109   */\n      tag_44\n      jump\t// in\n    tag_43:\n        /* \"#utility.yul\":83:86   */\n      dup3\n        /* \"#utility.yul\":76:110   */\n      mstore\n        /* \"#utility.yul\":7:116   */\n      pop\n      pop\n      jump\t// out\n        /* \"#utility.yul\":122:240   */\n    tag_45:\n        /* \"#utility.yul\":209:233   */\n      tag_47\n        /* \"#utility.yul\":227:232   */\n      dup2\n        /* \"#utility.yul\":209:233   */\n      tag_48\n      jump\t// in\n    tag_47:\n        /* \"#utility.yul\":204:207   */\n      dup3\n        /* \"#utility.yul\":197:234   */\n      mstore\n        /* \"#utility.yul\":122:240   */\n      pop\n      pop\n      jump\t// out\n        /* \"#utility.yul\":246:456   */\n    tag_10:\n        /* \"#utility.yul\":333:337   */\n      0x00\n        /* \"#utility.yul\":371:373   */\n      0x20\n        /* \"#utility.yul\":360:369   */\n      dup3\n        /* \"#utility.yul\":356:374   */\n      add\n        /* \"#utility.yul\":348:374   */\n      swap1\n      pop\n        /* \"#utility.yul\":384:449   */\n      tag_50\n        /* \"#utility.yul\":446:447   */\n      0x00\n        /* \"#utility.yul\":435:444   */\n      dup4\n        /* \"#utility.yul\":431:448   */\n      add\n        /* \"#utility.yul\":422:428   */\n      dup5\n        /* \"#utility.yul\":384:449   */\n      tag_41\n      jump\t// in\n    tag_50:\n        /* \"#utility.yul\":246:456   */\n      swap3\n      swap2\n      pop\n      pop\n      jump\t// out\n        /* \"#utility.yul\":462:904   */\n    tag_14:\n        /* \"#utility.yul\":611:615   */\n      0x00\n        /* \"#utility.yul\":649:651   */\n      0x60\n        /* \"#utility.yul\":638:647   */\n      dup3\n        /* \"#utility.yul\":634:652   */\n      add\n        /* \"#utility.yul\":626:652   */\n      swap1\n      pop\n        /* \"#utility.yul\":662:733   */\n      tag_52\n        /* \"#utility.yul\":730:731   */\n      0x00\n        /* \"#utility.yul\":719:728   */\n      dup4\n        /* \"#utility.yul\":715:732   */\n      add\n        /* \"#utility.yul\":706:712   */\n      dup7\n        /* \"#utility.yul\":662:733   */\n      tag_45\n      jump\t// in\n    tag_52:\n        /* \"#utility.yul\":743:815   */\n      tag_53\n        /* \"#utility.yul\":811:813   */\n      0x20\n        /* \"#utility.yul\":800:809   */\n      dup4\n        /* \"#utility.yul\":796:814   */\n      add\n        /* \"#utility.yul\":787:793   */\n      dup6\n        /* \"#utility.yul\":743:815   */\n      tag_45\n      jump\t// in\n    tag_53:\n        /* \"#utility.yul\":825:897   */\n      tag_54\n        /* \"#utility.yul\":893:895   */\n      0x40\n        /* \"#utility.yul\":882:891   */\n      dup4\n        /* \"#utility.yul\":878:896   */\n      add\n        /* \"#utility.yul\":869:875   */\n      dup5\n        /* \"#utility.yul\":825:897   */\n      tag_45\n      jump\t// in\n    tag_54:\n        /* \"#utility.yul\":462:904   */\n      swap5\n      swap4\n      pop\n      pop\n      pop\n      pop\n      jump\t// out\n        /* \"#utility.yul\":910:1000   */\n    tag_44:\n        /* \"#utility.yul\":944:951   */\n      0x00\n        /* \"#utility.yul\":987:992   */\n      dup2\n        /* \"#utility.yul\":980:993   */\n      iszero\n        /* \"#utility.yul\":973:994   */\n      iszero\n        /* \"#utility.yul\":962:994   */\n      swap1\n      pop\n        /* \"#utility.yul\":910:1000   */\n      swap2\n      swap1\n      pop\n      jump\t// out\n        /* \"#utility.yul\":1006:1083   */\n    tag_48:\n        /* \"#utility.yul\":1043:1050   */\n      0x00\n        /* \"#utility.yul\":1072:1077   */\n      dup2\n        /* \"#utility.yul\":1061:1077   */\n      swap1\n      pop\n        /* \"#utility.yul\":1006:1083   */\n      swap2\n      swap1\n      pop\n      jump\t// out\n        /* \"#utility.yul\":1089:1322   */\n    tag_26:\n        /* \"#utility.yul\":1128:1131   */\n      0x00\n        /* \"#utility.yul\":1151:1175   */\n      tag_58\n        /* \"#utility.yul\":1169:1174   */\n      dup3\n        /* \"#utility.yul\":1151:1175   */\n      tag_48\n      jump\t// in\n    tag_58:\n        /* \"#utility.yul\":1142:1175   */\n      swap2\n      pop\n        /* \"#utility.yul\":1197:1263   */\n      0xffffffffffffffffffffffffffffffffffffffffffffffffffffffffffffffff\n        /* \"#utility.yul\":1190:1195   */\n      dup3\n        /* \"#utility.yul\":1187:1264   */\n      eq\n        /* \"#utility.yul\":1184:1287   */\n      iszero\n      tag_59\n      jumpi\n        /* \"#utility.yul\":1267:1285   */\n      tag_60\n      tag_61\n      jump\t// in\n    tag_60:\n        /* \"#utility.yul\":1184:1287   */\n    tag_59:\n        /* \"#utility.yul\":1314:1315   */\n      0x01\n        /* \"#utility.yul\":1307:1312   */\n      dup3\n        /* \"#utility.yul\":1303:1316   */\n      add\n        /* \"#utility.yul\":1296:1316   */\n      swap1\n      pop\n        /* \"#utility.yul\":1089:1322   */\n      swap2\n      swap1\n      pop\n      jump\t// out\n        /* \"#utility.yul\":1328:1508   */\n    tag_61:\n        /* \"#utility.yul\":1376:1453   */\n      0x4e487b7100000000000000000000000000000000000000000000000000000000\n        /* \"#utility.yul\":1373:1374   */\n      0x00\n        /* \"#utility.yul\":1366:1454   */\n      mstore\n        /* \"#utility.yul\":1473:1477   */\n      0x11\n        /* \"#utility.yul\":1470:1471   */\n      0x04\n        /* \"#utility.yul\":1463:1478   */\n      mstore\n        /* \"#utility.yul\":1497:1501   */\n      0x24\n        /* \"#utility.yul\":1494:1495   */\n      0x00\n        /* \"#utility.yul\":1487:1502   */\n      revert\n\n    auxdata: 0xa26469706673582212207751b4f6bbe0c361d74253bf274523077f7836251a8560658bdce657459dbb3f64736f6c63430008070033\n}\n",
				"bytecode": {
					"linkReferences": {},
					"object": "608060405234801561001057600080fd5b506102eb806100206000396000f3fe608060405234801561001057600080fd5b506004361061004c5760003560e01c8063174c9c7e146100515780631801a3461461006f578063e7c898ef1461008f578063fc0e6008146100ad575b600080fd5b6100596100cb565b60405161006691906101d5565b60405180910390f35b610077610111565b604051610086939291906101f0565b60405180910390f35b610097610129565b6040516100a491906101d5565b60405180910390f35b6100b5610173565b6040516100c291906101d5565b60405180910390f35b6000806000905060006001819055505b600160008154809291906100ee9061023d565b919050555080806100fe9061023d565b915050600581106100db57600191505090565b60008060008054600154600254925092509250909192565b60008060009050600080819055505b600581101561016b57808061014c9061023d565b9150506000808154809291906101619061023d565b9190505550610138565b600191505090565b600080600090505b60058110156101af57600260008154809291906101979061023d565b919050555080806101a79061023d565b91505061017b565b506001905090565b6101c081610227565b82525050565b6101cf81610233565b82525050565b60006020820190506101ea60008301846101b7565b92915050565b600060608201905061020560008301866101c6565b61021260208301856101c6565b61021f60408301846101c6565b949350505050565b60008115159050919050565b6000819050919050565b600061024882610233565b91507fffffffffffffffffffffffffffffffffffffffffffffffffffffffffffffffff82141561027b5761027a610286565b5b600182019050919050565b7f4e487b7100000000000000000000000000000000000000000000000000000000600052601160045260246000fdfea26469706673582212207751b4f6bbe0c361d74253bf274523077f7836251a8560658bdce657459dbb3f64736f6c63430008070033",
					"opcodes": "PUSH1 0x80 PUSH1 0x40 MSTORE CALLVALUE DUP1 ISZERO PUSH2 0x10 JUMPI PUSH1 0x0 DUP1 REVERT JUMPDEST POP PUSH2 0x2EB DUP1 PUSH2 0x20 PUSH1 0x0 CODECOPY PUSH1 0x0 RETURN INVALID PUSH1 0x80 PUSH1 0x40 MSTORE CALLVALUE DUP1 ISZERO PUSH2 0x10 JUMPI PUSH1 0x0 DUP1 REVERT JUMPDEST POP PUSH1 0x4 CALLDATASIZE LT PUSH2 0x4C JUMPI PUSH1 0x0 CALLDATALOAD PUSH1 0xE0 SHR DUP1 PUSH4 0x174C9C7E EQ PUSH2 0x51 JUMPI DUP1 PUSH4 0x1801A346 EQ PUSH2 0x6F JUMPI DUP1 PUSH4 0xE7C898EF EQ PUSH2 0x8F JUMPI DUP1 PUSH4 0xFC0E6008 EQ PUSH2 0xAD JUMPI JUMPDEST PUSH1 0x0 DUP1 REVERT JUMPDEST PUSH2 0x59 PUSH2 0xCB JUMP JUMPDEST PUSH1 0x40 MLOAD PUSH2 0x66 SWAP2 SWAP1 PUSH2 0x1D5 JUMP JUMPDEST PUSH1 0x40 MLOAD DUP1 SWAP2 SUB SWAP1 RETURN JUMPDEST PUSH2 0x77 PUSH2 0x111 JUMP JUMPDEST PUSH1 0x40 MLOAD PUSH2 0x86 SWAP4 SWAP3 SWAP2 SWAP1 PUSH2 0x1F0 JUMP JUMPDEST PUSH1 0x40 MLOAD DUP1 SWAP2 SUB SWAP1 RETURN JUMPDEST PUSH2 0x97 PUSH2 0x129 JUMP JUMPDEST PUSH1 0x40 MLOAD PUSH2 0xA4 SWAP2 SWAP1 PUSH2 0x1D5 JUMP JUMPDEST PUSH1 0x40 MLOAD DUP1 SWAP2 SUB SWAP1 RETURN JUMPDEST PUSH2 0xB5 PUSH2 0x173 JUMP JUMPDEST PUSH1 0x40 MLOAD PUSH2 0xC2 SWAP2 SWAP1 PUSH2 0x1D5 JUMP JUMPDEST PUSH1 0x40 MLOAD DUP1 SWAP2 SUB SWAP1 RETURN JUMPDEST PUSH1 0x0 DUP1 PUSH1 0x0 SWAP1 POP PUSH1 0x0 PUSH1 0x1 DUP2 SWAP1 SSTORE POP JUMPDEST PUSH1 0x1 PUSH1 0x0 DUP2 SLOAD DUP1 SWAP3 SWAP2 SWAP1 PUSH2 0xEE SWAP1 PUSH2 0x23D JUMP JUMPDEST SWAP2 SWAP1 POP SSTORE POP DUP1 DUP1 PUSH2 0xFE SWAP1 PUSH2 0x23D JUMP JUMPDEST SWAP2 POP POP PUSH1 0x5 DUP2 LT PUSH2 0xDB JUMPI PUSH1 0x1 SWAP2 POP POP SWAP1 JUMP JUMPDEST PUSH1 0x0 DUP1 PUSH1 0x0 DUP1 SLOAD PUSH1 0x1 SLOAD PUSH1 0x2 SLOAD SWAP3 POP SWAP3 POP SWAP3 POP SWAP1 SWAP2 SWAP3 JUMP JUMPDEST PUSH1 0x0 DUP1 PUSH1 0x0 SWAP1 POP PUSH1 0x0 DUP1 DUP2 SWAP1 SSTORE POP JUMPDEST PUSH1 0x5 DUP2 LT ISZERO PUSH2 0x16B JUMPI DUP1 DUP1 PUSH2 0x14C SWAP1 PUSH2 0x23D JUMP JUMPDEST SWAP2 POP POP PUSH1 0x0 DUP1 DUP2 SLOAD DUP1 SWAP3 SWAP2 SWAP1 PUSH2 0x161 SWAP1 PUSH2 0x23D JUMP JUMPDEST SWAP2 SWAP1 POP SSTORE POP PUSH2 0x138 JUMP JUMPDEST PUSH1 0x1 SWAP2 POP POP SWAP1 JUMP JUMPDEST PUSH1 0x0 DUP1 PUSH1 0x0 SWAP1 POP JUMPDEST PUSH1 0x5 DUP2 LT ISZERO PUSH2 0x1AF JUMPI PUSH1 0x2 PUSH1 0x0 DUP2 SLOAD DUP1 SWAP3 SWAP2 SWAP1 PUSH2 0x197 SWAP1 PUSH2 0x23D JUMP JUMPDEST SWAP2 SWAP1 POP SSTORE POP DUP1 DUP1 PUSH2 0x1A7 SWAP1 PUSH2 0x23D JUMP JUMPDEST SWAP2 POP POP PUSH2 0x17B JUMP JUMPDEST POP PUSH1 0x1 SWAP1 POP SWAP1 JUMP JUMPDEST PUSH2 0x1C0 DUP2 PUSH2 0x227 JUMP JUMPDEST DUP3 MSTORE POP POP JUMP JUMPDEST PUSH2 0x1CF DUP2 PUSH2 0x233 JUMP JUMPDEST DUP3 MSTORE POP POP JUMP JUMPDEST PUSH1 0x0 PUSH1 0x20 DUP3 ADD SWAP1 POP PUSH2 0x1EA PUSH1 0x0 DUP4 ADD DUP5 PUSH2 0x1B7 JUMP JUMPDEST SWAP3 SWAP2 POP POP JUMP JUMPDEST PUSH1 0x0 PUSH1 0x60 DUP3 ADD SWAP1 POP PUSH2 0x205 PUSH1 0x0 DUP4 ADD DUP7 PUSH2 0x1C6 JUMP JUMPDEST PUSH2 0x212 PUSH1 0x20 DUP4 ADD DUP6 PUSH2 0x1C6 JUMP JUMPDEST PUSH2 0x21F PUSH1 0x40 DUP4 ADD DUP5 PUSH2 0x1C6 JUMP JUMPDEST SWAP5 SWAP4 POP POP POP POP JUMP JUMPDEST PUSH1 0x0 DUP2 ISZERO ISZERO SWAP1 POP SWAP2 SWAP1 POP JUMP JUMPDEST PUSH1 0x0 DUP2 SWAP1 POP SWAP2 SWAP1 POP JUMP JUMPDEST PUSH1 0x0 PUSH2 0x248 DUP3 PUSH2 0x233 JUMP JUMPDEST SWAP2 POP PUSH32 0xFFFFFFFFFFFFFFFFFFFFFFFFFFFFFFFFFFFFFFFFFFFFFFFFFFFFFFFFFFFFFFFF DUP3 EQ ISZERO PUSH2 0x27B JUMPI PUSH2 0x27A PUSH2 0x286 JUMP JUMPDEST JUMPDEST PUSH1 0x1 DUP3 ADD SWAP1 POP SWAP2 SWAP1 POP JUMP JUMPDEST PUSH32 0x4E487B7100000000000000000000000000000000000000000000000000000000 PUSH1 0x0 MSTORE PUSH1 0x11 PUSH1 0x4 MSTORE PUSH1 0x24 PUSH1 0x0 REVERT INVALID LOG2 PUSH5 0x6970667358 0x22 SLT KECCAK256 PUSH24 0x51B4F6BBE0C361D74253BF274523077F7836251A8560658B 0xDC 0xE6 JUMPI GASLIMIT SWAP14 0xBB EXTCODEHASH PUSH5 0x736F6C6343 STOP ADDMOD SMOD STOP CALLER "
				},
				"gasEstimates": {
					"creation": {
						"codeDepositCost": "149400",
						"executionCost": "196",
						"totalCost": "149596"
					},
					"external": {
						"doWhileLoop()": "infinite",
						"forLoop()": "infinite",
						"returnResult()": "infinite",
						"whileLoop()": "infinite"
					}
				},
				"methodIdentifiers": {
					"doWhileLoop()": "174c9c7e",
					"forLoop()": "fc0e6008",
					"returnResult()": "1801a346",
					"whileLoop()": "e7c898ef"
				}
			},
			"storageLayout": {
				"storage": [
					{
						"astId": 635,
						"contract": "contracts/Demo.sol:Iterators",
						"label": "whileRes",
						"offset": 0,
						"slot": "0",
						"type": "t_uint256"
					},
					{
						"astId": 637,
						"contract": "contracts/Demo.sol:Iterators",
						"label": "doWhileRes",
						"offset": 0,
						"slot": "1",
						"type": "t_uint256"
					},
					{
						"astId": 639,
						"contract": "contracts/Demo.sol:Iterators",
						"label": "forRes",
						"offset": 0,
						"slot": "2",
						"type": "t_uint256"
					}
				],
				"types": {
					"t_uint256": {
						"encoding": "inplace",
						"label": "uint256",
						"numberOfBytes": "32"
					}
				}
			},
			"userdoc": {
				"kind": "user",
				"methods": {},
				"version": 1
			}
		}
	}
}