{
	"contracts/Demo.sol": {
		"FuncModifiers": {
			"abi": [
				{
					"inputs": [],
					"stateMutability": "nonpayable",
					"type": "constructor"
				},
				{
					"inputs": [],
					"name": "withdraw",
					"outputs": [
						{
							"internalType": "address",
							"name": "",
							"type": "address"
						}
					],
					"stateMutability": "view",
					"type": "function"
				}
			],
			"devdoc": {
				"kind": "dev",
				"methods": {},
				"version": 1
			},
			"evm": {
				"assembly": "    /* \"contracts/Demo.sol\":6774:7121  contract FuncModifiers{... */\n  mstore(0x40, 0x80)\n    /* \"contracts/Demo.sol\":6830:6878  constructor(){... */\n  callvalue\n  dup1\n  iszero\n  tag_1\n  jumpi\n  0x00\n  dup1\n  revert\ntag_1:\n  pop\n    /* \"contracts/Demo.sol\":6861:6871  msg.sender */\n  caller\n    /* \"contracts/Demo.sol\":6853:6858  owner */\n  0x00\n  dup1\n    /* \"contracts/Demo.sol\":6853:6871  owner = msg.sender */\n  0x0100\n  exp\n  dup2\n  sload\n  dup2\n  0xffffffffffffffffffffffffffffffffffffffff\n  mul\n  not\n  and\n  swap1\n  dup4\n  0xffffffffffffffffffffffffffffffffffffffff\n  and\n  mul\n  or\n  swap1\n  sstore\n  pop\n    /* \"contracts/Demo.sol\":6774:7121  contract FuncModifiers{... */\n  dataSize(sub_0)\n  dup1\n  dataOffset(sub_0)\n  0x00\n  codecopy\n  0x00\n  return\nstop\n\nsub_0: assembly {\n        /* \"contracts/Demo.sol\":6774:7121  contract FuncModifiers{... */\n      mstore(0x40, 0x80)\n      callvalue\n      dup1\n      iszero\n      tag_1\n      jumpi\n      0x00\n      dup1\n      revert\n    tag_1:\n      pop\n      jumpi(tag_2, lt(calldatasize, 0x04))\n      shr(0xe0, calldataload(0x00))\n      dup1\n      0x3ccfd60b\n      eq\n      tag_3\n      jumpi\n    tag_2:\n      0x00\n      dup1\n      revert\n        /* \"contracts/Demo.sol\":6999:7119  function withdraw() external view ownerOnly(\"Unauthorized access\") returns(address){... */\n    tag_3:\n      tag_4\n      tag_5\n      jump\t// in\n    tag_4:\n      mload(0x40)\n      tag_6\n      swap2\n      swap1\n      tag_7\n      jump\t// in\n    tag_6:\n      mload(0x40)\n      dup1\n      swap2\n      sub\n      swap1\n      return\n    tag_5:\n        /* \"contracts/Demo.sol\":7074:7081  address */\n      0x00\n        /* \"contracts/Demo.sol\":6884:6993  modifier  ownerOnly(string memory message){... */\n      mload(0x40)\n      dup1\n      0x40\n      add\n      0x40\n      mstore\n      dup1\n      0x13\n      dup2\n      mstore\n      0x20\n      add\n      0x556e617574686f72697a65642061636365737300000000000000000000000000\n      dup2\n      mstore\n      pop\n        /* \"contracts/Demo.sol\":6959:6964  owner */\n      0x00\n      dup1\n      sload\n      swap1\n      0x0100\n      exp\n      swap1\n      div\n      0xffffffffffffffffffffffffffffffffffffffff\n      and\n        /* \"contracts/Demo.sol\":6945:6964  msg.sender == owner */\n      0xffffffffffffffffffffffffffffffffffffffff\n      and\n        /* \"contracts/Demo.sol\":6945:6955  msg.sender */\n      caller\n        /* \"contracts/Demo.sol\":6945:6964  msg.sender == owner */\n      0xffffffffffffffffffffffffffffffffffffffff\n      and\n      eq\n        /* \"contracts/Demo.sol\":6966:6973  message */\n      dup2\n        /* \"contracts/Demo.sol\":6937:6974  require(msg.sender == owner, message) */\n      swap1\n      tag_9\n      jumpi\n      mload(0x40)\n      0x08c379a000000000000000000000000000000000000000000000000000000000\n      dup2\n      mstore\n      0x04\n      add\n      tag_10\n      swap2\n      swap1\n      tag_11\n      jump\t// in\n    tag_10:\n      mload(0x40)\n      dup1\n      swap2\n      sub\n      swap1\n      revert\n    tag_9:\n      pop\n        /* \"contracts/Demo.sol\":7107:7112  owner */\n      0x00\n      dup1\n      sload\n      swap1\n      0x0100\n      exp\n      swap1\n      div\n      0xffffffffffffffffffffffffffffffffffffffff\n      and\n        /* \"contracts/Demo.sol\":7100:7112  return owner */\n      swap2\n      pop\n        /* \"contracts/Demo.sol\":6999:7119  function withdraw() external view ownerOnly(\"Unauthorized access\") returns(address){... */\n      pop\n      swap1\n      jump\t// out\n        /* \"#utility.yul\":7:125   */\n    tag_14:\n        /* \"#utility.yul\":94:118   */\n      tag_16\n        /* \"#utility.yul\":112:117   */\n      dup2\n        /* \"#utility.yul\":94:118   */\n      tag_17\n      jump\t// in\n    tag_16:\n        /* \"#utility.yul\":89:92   */\n      dup3\n        /* \"#utility.yul\":82:119   */\n      mstore\n        /* \"#utility.yul\":7:125   */\n      pop\n      pop\n      jump\t// out\n        /* \"#utility.yul\":131:495   */\n    tag_18:\n        /* \"#utility.yul\":219:222   */\n      0x00\n        /* \"#utility.yul\":247:286   */\n      tag_20\n        /* \"#utility.yul\":280:285   */\n      dup3\n        /* \"#utility.yul\":247:286   */\n      tag_21\n      jump\t// in\n    tag_20:\n        /* \"#utility.yul\":302:373   */\n      tag_22\n        /* \"#utility.yul\":366:372   */\n      dup2\n        /* \"#utility.yul\":361:364   */\n      dup6\n        /* \"#utility.yul\":302:373   */\n      tag_23\n      jump\t// in\n    tag_22:\n        /* \"#utility.yul\":295:373   */\n      swap4\n      pop\n        /* \"#utility.yul\":382:434   */\n      tag_24\n        /* \"#utility.yul\":427:433   */\n      dup2\n        /* \"#utility.yul\":422:425   */\n      dup6\n        /* \"#utility.yul\":415:419   */\n      0x20\n        /* \"#utility.yul\":408:413   */\n      dup7\n        /* \"#utility.yul\":404:420   */\n      add\n        /* \"#utility.yul\":382:434   */\n      tag_25\n      jump\t// in\n    tag_24:\n        /* \"#utility.yul\":459:488   */\n      tag_26\n        /* \"#utility.yul\":481:487   */\n      dup2\n        /* \"#utility.yul\":459:488   */\n      tag_27\n      jump\t// in\n    tag_26:\n        /* \"#utility.yul\":454:457   */\n      dup5\n        /* \"#utility.yul\":450:489   */\n      add\n        /* \"#utility.yul\":443:489   */\n      swap2\n      pop\n        /* \"#utility.yul\":223:495   */\n      pop\n        /* \"#utility.yul\":131:495   */\n      swap3\n      swap2\n      pop\n      pop\n      jump\t// out\n        /* \"#utility.yul\":501:723   */\n    tag_7:\n        /* \"#utility.yul\":594:598   */\n      0x00\n        /* \"#utility.yul\":632:634   */\n      0x20\n        /* \"#utility.yul\":621:630   */\n      dup3\n        /* \"#utility.yul\":617:635   */\n      add\n        /* \"#utility.yul\":609:635   */\n      swap1\n      pop\n        /* \"#utility.yul\":645:716   */\n      tag_29\n        /* \"#utility.yul\":713:714   */\n      0x00\n        /* \"#utility.yul\":702:711   */\n      dup4\n        /* \"#utility.yul\":698:715   */\n      add\n        /* \"#utility.yul\":689:695   */\n      dup5\n        /* \"#utility.yul\":645:716   */\n      tag_14\n      jump\t// in\n    tag_29:\n        /* \"#utility.yul\":501:723   */\n      swap3\n      swap2\n      pop\n      pop\n      jump\t// out\n        /* \"#utility.yul\":729:1042   */\n    tag_11:\n        /* \"#utility.yul\":842:846   */\n      0x00\n        /* \"#utility.yul\":880:882   */\n      0x20\n        /* \"#utility.yul\":869:878   */\n      dup3\n        /* \"#utility.yul\":865:883   */\n      add\n        /* \"#utility.yul\":857:883   */\n      swap1\n      pop\n        /* \"#utility.yul\":929:938   */\n      dup2\n        /* \"#utility.yul\":923:927   */\n      dup2\n        /* \"#utility.yul\":919:939   */\n      sub\n        /* \"#utility.yul\":915:916   */\n      0x00\n        /* \"#utility.yul\":904:913   */\n      dup4\n        /* \"#utility.yul\":900:917   */\n      add\n        /* \"#utility.yul\":893:940   */\n      mstore\n        /* \"#utility.yul\":957:1035   */\n      tag_31\n        /* \"#utility.yul\":1030:1034   */\n      dup2\n        /* \"#utility.yul\":1021:1027   */\n      dup5\n        /* \"#utility.yul\":957:1035   */\n      tag_18\n      jump\t// in\n    tag_31:\n        /* \"#utility.yul\":949:1035   */\n      swap1\n      pop\n        /* \"#utility.yul\":729:1042   */\n      swap3\n      swap2\n      pop\n      pop\n      jump\t// out\n        /* \"#utility.yul\":1048:1147   */\n    tag_21:\n        /* \"#utility.yul\":1100:1106   */\n      0x00\n        /* \"#utility.yul\":1134:1139   */\n      dup2\n        /* \"#utility.yul\":1128:1140   */\n      mload\n        /* \"#utility.yul\":1118:1140   */\n      swap1\n      pop\n        /* \"#utility.yul\":1048:1147   */\n      swap2\n      swap1\n      pop\n      jump\t// out\n        /* \"#utility.yul\":1153:1322   */\n    tag_23:\n        /* \"#utility.yul\":1237:1248   */\n      0x00\n        /* \"#utility.yul\":1271:1277   */\n      dup3\n        /* \"#utility.yul\":1266:1269   */\n      dup3\n        /* \"#utility.yul\":1259:1278   */\n      mstore\n        /* \"#utility.yul\":1311:1315   */\n      0x20\n        /* \"#utility.yul\":1306:1309   */\n      dup3\n        /* \"#utility.yul\":1302:1316   */\n      add\n        /* \"#utility.yul\":1287:1316   */\n      swap1\n      pop\n        /* \"#utility.yul\":1153:1322   */\n      swap3\n      swap2\n      pop\n      pop\n      jump\t// out\n        /* \"#utility.yul\":1328:1424   */\n    tag_17:\n        /* \"#utility.yul\":1365:1372   */\n      0x00\n        /* \"#utility.yul\":1394:1418   */\n      tag_35\n        /* \"#utility.yul\":1412:1417   */\n      dup3\n        /* \"#utility.yul\":1394:1418   */\n      tag_36\n      jump\t// in\n    tag_35:\n        /* \"#utility.yul\":1383:1418   */\n      swap1\n      pop\n        /* \"#utility.yul\":1328:1424   */\n      swap2\n      swap1\n      pop\n      jump\t// out\n        /* \"#utility.yul\":1430:1556   */\n    tag_36:\n        /* \"#utility.yul\":1467:1474   */\n      0x00\n        /* \"#utility.yul\":1507:1549   */\n      0xffffffffffffffffffffffffffffffffffffffff\n        /* \"#utility.yul\":1500:1505   */\n      dup3\n        /* \"#utility.yul\":1496:1550   */\n      and\n        /* \"#utility.yul\":1485:1550   */\n      swap1\n      pop\n        /* \"#utility.yul\":1430:1556   */\n      swap2\n      swap1\n      pop\n      jump\t// out\n        /* \"#utility.yul\":1562:1869   */\n    tag_25:\n        /* \"#utility.yul\":1630:1631   */\n      0x00\n        /* \"#utility.yul\":1640:1753   */\n    tag_39:\n        /* \"#utility.yul\":1654:1660   */\n      dup4\n        /* \"#utility.yul\":1651:1652   */\n      dup2\n        /* \"#utility.yul\":1648:1661   */\n      lt\n        /* \"#utility.yul\":1640:1753   */\n      iszero\n      tag_41\n      jumpi\n        /* \"#utility.yul\":1739:1740   */\n      dup1\n        /* \"#utility.yul\":1734:1737   */\n      dup3\n        /* \"#utility.yul\":1730:1741   */\n      add\n        /* \"#utility.yul\":1724:1742   */\n      mload\n        /* \"#utility.yul\":1720:1721   */\n      dup2\n        /* \"#utility.yul\":1715:1718   */\n      dup5\n        /* \"#utility.yul\":1711:1722   */\n      add\n        /* \"#utility.yul\":1704:1743   */\n      mstore\n        /* \"#utility.yul\":1676:1678   */\n      0x20\n        /* \"#utility.yul\":1673:1674   */\n      dup2\n        /* \"#utility.yul\":1669:1679   */\n      add\n        /* \"#utility.yul\":1664:1679   */\n      swap1\n      pop\n        /* \"#utility.yul\":1640:1753   */\n      jump(tag_39)\n    tag_41:\n        /* \"#utility.yul\":1771:1777   */\n      dup4\n        /* \"#utility.yul\":1768:1769   */\n      dup2\n        /* \"#utility.yul\":1765:1778   */\n      gt\n        /* \"#utility.yul\":1762:1863   */\n      iszero\n      tag_42\n      jumpi\n        /* \"#utility.yul\":1851:1852   */\n      0x00\n        /* \"#utility.yul\":1842:1848   */\n      dup5\n        /* \"#utility.yul\":1837:1840   */\n      dup5\n        /* \"#utility.yul\":1833:1849   */\n      add\n        /* \"#utility.yul\":1826:1853   */\n      mstore\n        /* \"#utility.yul\":1762:1863   */\n    tag_42:\n        /* \"#utility.yul\":1611:1869   */\n      pop\n        /* \"#utility.yul\":1562:1869   */\n      pop\n      pop\n      pop\n      jump\t// out\n        /* \"#utility.yul\":1875:1977   */\n    tag_27:\n        /* \"#utility.yul\":1916:1922   */\n      0x00\n        /* \"#utility.yul\":1967:1969   */\n      0x1f\n        /* \"#utility.yul\":1963:1970   */\n      not\n        /* \"#utility.yul\":1958:1960   */\n      0x1f\n        /* \"#utility.yul\":1951:1956   */\n      dup4\n        /* \"#utility.yul\":1947:1961   */\n      add\n        /* \"#utility.yul\":1943:1971   */\n      and\n        /* \"#utility.yul\":1933:1971   */\n      swap1\n      pop\n        /* \"#utility.yul\":1875:1977   */\n      swap2\n      swap1\n      pop\n      jump\t// out\n\n    auxdata: 0xa264697066735822122094df6e99e08ab1a99d97d2cc3a5a7a9a64c7b6959c0c3fca4e7ccea4d483b70764736f6c63430008070033\n}\n",
				"bytecode": {
					"linkReferences": {},
					"object": "608060405234801561001057600080fd5b50336000806101000a81548173ffffffffffffffffffffffffffffffffffffffff021916908373ffffffffffffffffffffffffffffffffffffffff16021790555061028c806100606000396000f3fe608060405234801561001057600080fd5b506004361061002b5760003560e01c80633ccfd60b14610030575b600080fd5b61003861004e565b6040516100459190610187565b60405180910390f35b60006040518060400160405280601381526020017f556e617574686f72697a6564206163636573730000000000000000000000000081525060008054906101000a900473ffffffffffffffffffffffffffffffffffffffff1673ffffffffffffffffffffffffffffffffffffffff163373ffffffffffffffffffffffffffffffffffffffff16148190610117576040517f08c379a000000000000000000000000000000000000000000000000000000000815260040161010e91906101a2565b60405180910390fd5b5060008054906101000a900473ffffffffffffffffffffffffffffffffffffffff1691505090565b610148816101e0565b82525050565b6000610159826101c4565b61016381856101cf565b9350610173818560208601610212565b61017c81610245565b840191505092915050565b600060208201905061019c600083018461013f565b92915050565b600060208201905081810360008301526101bc818461014e565b905092915050565b600081519050919050565b600082825260208201905092915050565b60006101eb826101f2565b9050919050565b600073ffffffffffffffffffffffffffffffffffffffff82169050919050565b60005b83811015610230578082015181840152602081019050610215565b8381111561023f576000848401525b50505050565b6000601f19601f830116905091905056fea264697066735822122094df6e99e08ab1a99d97d2cc3a5a7a9a64c7b6959c0c3fca4e7ccea4d483b70764736f6c63430008070033",
					"opcodes": "PUSH1 0x80 PUSH1 0x40 MSTORE CALLVALUE DUP1 ISZERO PUSH2 0x10 JUMPI PUSH1 0x0 DUP1 REVERT JUMPDEST POP CALLER PUSH1 0x0 DUP1 PUSH2 0x100 EXP DUP2 SLOAD DUP2 PUSH20 0xFFFFFFFFFFFFFFFFFFFFFFFFFFFFFFFFFFFFFFFF MUL NOT AND SWAP1 DUP4 PUSH20 0xFFFFFFFFFFFFFFFFFFFFFFFFFFFFFFFFFFFFFFFF AND MUL OR SWAP1 SSTORE POP PUSH2 0x28C DUP1 PUSH2 0x60 PUSH1 0x0 CODECOPY PUSH1 0x0 RETURN INVALID PUSH1 0x80 PUSH1 0x40 MSTORE CALLVALUE DUP1 ISZERO PUSH2 0x10 JUMPI PUSH1 0x0 DUP1 REVERT JUMPDEST POP PUSH1 0x4 CALLDATASIZE LT PUSH2 0x2B JUMPI PUSH1 0x0 CALLDATALOAD PUSH1 0xE0 SHR DUP1 PUSH4 0x3CCFD60B EQ PUSH2 0x30 JUMPI JUMPDEST PUSH1 0x0 DUP1 REVERT JUMPDEST PUSH2 0x38 PUSH2 0x4E JUMP JUMPDEST PUSH1 0x40 MLOAD PUSH2 0x45 SWAP2 SWAP1 PUSH2 0x187 JUMP JUMPDEST PUSH1 0x40 MLOAD DUP1 SWAP2 SUB SWAP1 RETURN JUMPDEST PUSH1 0x0 PUSH1 0x40 MLOAD DUP1 PUSH1 0x40 ADD PUSH1 0x40 MSTORE DUP1 PUSH1 0x13 DUP2 MSTORE PUSH1 0x20 ADD PUSH32 0x556E617574686F72697A65642061636365737300000000000000000000000000 DUP2 MSTORE POP PUSH1 0x0 DUP1 SLOAD SWAP1 PUSH2 0x100 EXP SWAP1 DIV PUSH20 0xFFFFFFFFFFFFFFFFFFFFFFFFFFFFFFFFFFFFFFFF AND PUSH20 0xFFFFFFFFFFFFFFFFFFFFFFFFFFFFFFFFFFFFFFFF AND CALLER PUSH20 0xFFFFFFFFFFFFFFFFFFFFFFFFFFFFFFFFFFFFFFFF AND EQ DUP2 SWAP1 PUSH2 0x117 JUMPI PUSH1 0x40 MLOAD PUSH32 0x8C379A000000000000000000000000000000000000000000000000000000000 DUP2 MSTORE PUSH1 0x4 ADD PUSH2 0x10E SWAP2 SWAP1 PUSH2 0x1A2 JUMP JUMPDEST PUSH1 0x40 MLOAD DUP1 SWAP2 SUB SWAP1 REVERT JUMPDEST POP PUSH1 0x0 DUP1 SLOAD SWAP1 PUSH2 0x100 EXP SWAP1 DIV PUSH20 0xFFFFFFFFFFFFFFFFFFFFFFFFFFFFFFFFFFFFFFFF AND SWAP2 POP POP SWAP1 JUMP JUMPDEST PUSH2 0x148 DUP2 PUSH2 0x1E0 JUMP JUMPDEST DUP3 MSTORE POP POP JUMP JUMPDEST PUSH1 0x0 PUSH2 0x159 DUP3 PUSH2 0x1C4 JUMP JUMPDEST PUSH2 0x163 DUP2 DUP6 PUSH2 0x1CF JUMP JUMPDEST SWAP4 POP PUSH2 0x173 DUP2 DUP6 PUSH1 0x20 DUP7 ADD PUSH2 0x212 JUMP JUMPDEST PUSH2 0x17C DUP2 PUSH2 0x245 JUMP JUMPDEST DUP5 ADD SWAP2 POP POP SWAP3 SWAP2 POP POP JUMP JUMPDEST PUSH1 0x0 PUSH1 0x20 DUP3 ADD SWAP1 POP PUSH2 0x19C PUSH1 0x0 DUP4 ADD DUP5 PUSH2 0x13F JUMP JUMPDEST SWAP3 SWAP2 POP POP JUMP JUMPDEST PUSH1 0x0 PUSH1 0x20 DUP3 ADD SWAP1 POP DUP2 DUP2 SUB PUSH1 0x0 DUP4 ADD MSTORE PUSH2 0x1BC DUP2 DUP5 PUSH2 0x14E JUMP JUMPDEST SWAP1 POP SWAP3 SWAP2 POP POP JUMP JUMPDEST PUSH1 0x0 DUP2 MLOAD SWAP1 POP SWAP2 SWAP1 POP JUMP JUMPDEST PUSH1 0x0 DUP3 DUP3 MSTORE PUSH1 0x20 DUP3 ADD SWAP1 POP SWAP3 SWAP2 POP POP JUMP JUMPDEST PUSH1 0x0 PUSH2 0x1EB DUP3 PUSH2 0x1F2 JUMP JUMPDEST SWAP1 POP SWAP2 SWAP1 POP JUMP JUMPDEST PUSH1 0x0 PUSH20 0xFFFFFFFFFFFFFFFFFFFFFFFFFFFFFFFFFFFFFFFF DUP3 AND SWAP1 POP SWAP2 SWAP1 POP JUMP JUMPDEST PUSH1 0x0 JUMPDEST DUP4 DUP2 LT ISZERO PUSH2 0x230 JUMPI DUP1 DUP3 ADD MLOAD DUP2 DUP5 ADD MSTORE PUSH1 0x20 DUP2 ADD SWAP1 POP PUSH2 0x215 JUMP JUMPDEST DUP4 DUP2 GT ISZERO PUSH2 0x23F JUMPI PUSH1 0x0 DUP5 DUP5 ADD MSTORE JUMPDEST POP POP POP POP JUMP JUMPDEST PUSH1 0x0 PUSH1 0x1F NOT PUSH1 0x1F DUP4 ADD AND SWAP1 POP SWAP2 SWAP1 POP JUMP INVALID LOG2 PUSH5 0x6970667358 0x22 SLT KECCAK256 SWAP5 0xDF PUSH15 0x99E08AB1A99D97D2CC3A5A7A9A64C7 0xB6 SWAP6 SWAP13 0xC EXTCODEHASH 0xCA 0x4E PUSH29 0xCEA4D483B70764736F6C63430008070033000000000000000000000000 "
				},
				"gasEstimates": {
					"creation": {
						"codeDepositCost": "130400",
						"executionCost": "24443",
						"totalCost": "154843"
					},
					"external": {
						"withdraw()": "infinite"
					}
				},
				"methodIdentifiers": {
					"withdraw()": "3ccfd60b"
				}
			},
			"storageLayout": {
				"storage": [
					{
						"astId": 734,
						"contract": "contracts/Demo.sol:FuncModifiers",
						"label": "owner",
						"offset": 0,
						"slot": "0",
						"type": "t_address"
					}
				],
				"types": {
					"t_address": {
						"encoding": "inplace",
						"label": "address",
						"numberOfBytes": "20"
					}
				}
			},
			"userdoc": {
				"kind": "user",
				"methods": {},
				"version": 1
			}
		}
	}
}