{
	"contracts/Demo.sol": {
		"PracticeStruct": {
			"abi": [
				{
					"inputs": [],
					"name": "createProduct",
					"outputs": [],
					"stateMutability": "nonpayable",
					"type": "function"
				},
				{
					"inputs": [],
					"name": "items",
					"outputs": [
						{
							"internalType": "uint256",
							"name": "id",
							"type": "uint256"
						},
						{
							"internalType": "address",
							"name": "owner",
							"type": "address"
						},
						{
							"internalType": "string",
							"name": "name",
							"type": "string"
						},
						{
							"internalType": "uint256",
							"name": "price",
							"type": "uint256"
						},
						{
							"internalType": "uint256",
							"name": "createdAt",
							"type": "uint256"
						},
						{
							"internalType": "bool",
							"name": "deleted",
							"type": "bool"
						}
					],
					"stateMutability": "view",
					"type": "function"
				}
			],
			"devdoc": {
				"kind": "dev",
				"methods": {},
				"version": 1
			},
			"evm": {
				"assembly": "    /* \"contracts/Demo.sol\":1483:1948  contract PracticeStruct{... */\n  mstore(0x40, 0x80)\n  callvalue\n  dup1\n  iszero\n  tag_1\n  jumpi\n  0x00\n  dup1\n  revert\ntag_1:\n  pop\n  dataSize(sub_0)\n  dup1\n  dataOffset(sub_0)\n  0x00\n  codecopy\n  0x00\n  return\nstop\n\nsub_0: assembly {\n        /* \"contracts/Demo.sol\":1483:1948  contract PracticeStruct{... */\n      mstore(0x40, 0x80)\n      callvalue\n      dup1\n      iszero\n      tag_1\n      jumpi\n      0x00\n      dup1\n      revert\n    tag_1:\n      pop\n      jumpi(tag_2, lt(calldatasize, 0x04))\n      shr(0xe0, calldataload(0x00))\n      dup1\n      0x14d75e9d\n      eq\n      tag_3\n      jumpi\n      dup1\n      0xc06fad06\n      eq\n      tag_4\n      jumpi\n    tag_2:\n      0x00\n      dup1\n      revert\n        /* \"contracts/Demo.sol\":1705:1946  function createProduct() public {... */\n    tag_3:\n      tag_5\n      tag_6\n      jump\t// in\n    tag_5:\n      stop\n        /* \"contracts/Demo.sol\":1509:1535  productStruct public items */\n    tag_4:\n      tag_7\n      tag_8\n      jump\t// in\n    tag_7:\n      mload(0x40)\n      tag_9\n      swap7\n      swap6\n      swap5\n      swap4\n      swap3\n      swap2\n      swap1\n      tag_10\n      jump\t// in\n    tag_9:\n      mload(0x40)\n      dup1\n      swap2\n      sub\n      swap1\n      return\n        /* \"contracts/Demo.sol\":1705:1946  function createProduct() public {... */\n    tag_6:\n        /* \"contracts/Demo.sol\":1755:1939  productStruct(... */\n      mload(0x40)\n      dup1\n      0xc0\n      add\n      0x40\n      mstore\n      dup1\n        /* \"contracts/Demo.sol\":1782:1783  1 */\n      0x01\n        /* \"contracts/Demo.sol\":1755:1939  productStruct(... */\n      dup2\n      mstore\n      0x20\n      add\n        /* \"contracts/Demo.sol\":1797:1839  0x5B38Da6a701c568545dCfcB03FcB875f56beddC4 */\n      0x5b38da6a701c568545dcfcb03fcb875f56beddc4\n        /* \"contracts/Demo.sol\":1755:1939  productStruct(... */\n      0xffffffffffffffffffffffffffffffffffffffff\n      and\n      dup2\n      mstore\n      0x20\n      add\n      mload(0x40)\n      dup1\n      0x40\n      add\n      0x40\n      mstore\n      dup1\n      0x05\n      dup2\n      mstore\n      0x20\n      add\n      0x526176656e000000000000000000000000000000000000000000000000000000\n      dup2\n      mstore\n      pop\n      dup2\n      mstore\n      0x20\n      add\n        /* \"contracts/Demo.sol\":1874:1881  1 ether */\n      0x0de0b6b3a7640000\n        /* \"contracts/Demo.sol\":1755:1939  productStruct(... */\n      dup2\n      mstore\n      0x20\n      add\n        /* \"contracts/Demo.sol\":1895:1910  block.timestamp */\n      timestamp\n        /* \"contracts/Demo.sol\":1755:1939  productStruct(... */\n      dup2\n      mstore\n      0x20\n      add\n        /* \"contracts/Demo.sol\":1924:1929  false */\n      0x00\n        /* \"contracts/Demo.sol\":1755:1939  productStruct(... */\n      iszero\n      iszero\n      dup2\n      mstore\n      pop\n        /* \"contracts/Demo.sol\":1747:1752  items */\n      0x00\n        /* \"contracts/Demo.sol\":1747:1939  items = productStruct(... */\n      dup1\n      dup3\n      add\n      mload\n      dup2\n      0x00\n      add\n      sstore\n      0x20\n      dup3\n      add\n      mload\n      dup2\n      0x01\n      add\n      exp(0x0100, 0x00)\n      dup2\n      sload\n      dup2\n      0xffffffffffffffffffffffffffffffffffffffff\n      mul\n      not\n      and\n      swap1\n      dup4\n      0xffffffffffffffffffffffffffffffffffffffff\n      and\n      mul\n      or\n      swap1\n      sstore\n      pop\n      0x40\n      dup3\n      add\n      mload\n      dup2\n      0x02\n      add\n      swap1\n      dup1\n      mload\n      swap1\n      0x20\n      add\n      swap1\n      tag_12\n      swap3\n      swap2\n      swap1\n      tag_13\n      jump\t// in\n    tag_12:\n      pop\n      0x60\n      dup3\n      add\n      mload\n      dup2\n      0x03\n      add\n      sstore\n      0x80\n      dup3\n      add\n      mload\n      dup2\n      0x04\n      add\n      sstore\n      0xa0\n      dup3\n      add\n      mload\n      dup2\n      0x05\n      add\n      exp(0x0100, 0x00)\n      dup2\n      sload\n      dup2\n      0xff\n      mul\n      not\n      and\n      swap1\n      dup4\n      iszero\n      iszero\n      mul\n      or\n      swap1\n      sstore\n      pop\n      swap1\n      pop\n      pop\n        /* \"contracts/Demo.sol\":1705:1946  function createProduct() public {... */\n      jump\t// out\n        /* \"contracts/Demo.sol\":1509:1535  productStruct public items */\n    tag_8:\n      0x00\n      dup1\n      0x00\n      add\n      sload\n      swap1\n      dup1\n      0x01\n      add\n      0x00\n      swap1\n      sload\n      swap1\n      0x0100\n      exp\n      swap1\n      div\n      0xffffffffffffffffffffffffffffffffffffffff\n      and\n      swap1\n      dup1\n      0x02\n      add\n      dup1\n      sload\n      tag_14\n      swap1\n      tag_15\n      jump\t// in\n    tag_14:\n      dup1\n      0x1f\n      add\n      0x20\n      dup1\n      swap2\n      div\n      mul\n      0x20\n      add\n      mload(0x40)\n      swap1\n      dup2\n      add\n      0x40\n      mstore\n      dup1\n      swap3\n      swap2\n      swap1\n      dup2\n      dup2\n      mstore\n      0x20\n      add\n      dup3\n      dup1\n      sload\n      tag_16\n      swap1\n      tag_15\n      jump\t// in\n    tag_16:\n      dup1\n      iszero\n      tag_17\n      jumpi\n      dup1\n      0x1f\n      lt\n      tag_18\n      jumpi\n      0x0100\n      dup1\n      dup4\n      sload\n      div\n      mul\n      dup4\n      mstore\n      swap2\n      0x20\n      add\n      swap2\n      jump(tag_17)\n    tag_18:\n      dup3\n      add\n      swap2\n      swap1\n      0x00\n      mstore\n      keccak256(0x00, 0x20)\n      swap1\n    tag_19:\n      dup2\n      sload\n      dup2\n      mstore\n      swap1\n      0x01\n      add\n      swap1\n      0x20\n      add\n      dup1\n      dup4\n      gt\n      tag_19\n      jumpi\n      dup3\n      swap1\n      sub\n      0x1f\n      and\n      dup3\n      add\n      swap2\n    tag_17:\n      pop\n      pop\n      pop\n      pop\n      pop\n      swap1\n      dup1\n      0x03\n      add\n      sload\n      swap1\n      dup1\n      0x04\n      add\n      sload\n      swap1\n      dup1\n      0x05\n      add\n      0x00\n      swap1\n      sload\n      swap1\n      0x0100\n      exp\n      swap1\n      div\n      0xff\n      and\n      swap1\n      pop\n      dup7\n      jump\t// out\n    tag_13:\n      dup3\n      dup1\n      sload\n      tag_20\n      swap1\n      tag_15\n      jump\t// in\n    tag_20:\n      swap1\n      0x00\n      mstore\n      keccak256(0x00, 0x20)\n      swap1\n      0x1f\n      add\n      0x20\n      swap1\n      div\n      dup2\n      add\n      swap3\n      dup3\n      tag_22\n      jumpi\n      0x00\n      dup6\n      sstore\n      jump(tag_21)\n    tag_22:\n      dup3\n      0x1f\n      lt\n      tag_23\n      jumpi\n      dup1\n      mload\n      not(0xff)\n      and\n      dup4\n      dup1\n      add\n      or\n      dup6\n      sstore\n      jump(tag_21)\n    tag_23:\n      dup3\n      dup1\n      add\n      0x01\n      add\n      dup6\n      sstore\n      dup3\n      iszero\n      tag_21\n      jumpi\n      swap2\n      dup3\n      add\n    tag_24:\n      dup3\n      dup2\n      gt\n      iszero\n      tag_25\n      jumpi\n      dup3\n      mload\n      dup3\n      sstore\n      swap2\n      0x20\n      add\n      swap2\n      swap1\n      0x01\n      add\n      swap1\n      jump(tag_24)\n    tag_25:\n    tag_21:\n      pop\n      swap1\n      pop\n      tag_26\n      swap2\n      swap1\n      tag_27\n      jump\t// in\n    tag_26:\n      pop\n      swap1\n      jump\t// out\n    tag_27:\n    tag_28:\n      dup1\n      dup3\n      gt\n      iszero\n      tag_29\n      jumpi\n      0x00\n      dup2\n      0x00\n      swap1\n      sstore\n      pop\n      0x01\n      add\n      jump(tag_28)\n    tag_29:\n      pop\n      swap1\n      jump\t// out\n        /* \"#utility.yul\":7:125   */\n    tag_31:\n        /* \"#utility.yul\":94:118   */\n      tag_33\n        /* \"#utility.yul\":112:117   */\n      dup2\n        /* \"#utility.yul\":94:118   */\n      tag_34\n      jump\t// in\n    tag_33:\n        /* \"#utility.yul\":89:92   */\n      dup3\n        /* \"#utility.yul\":82:119   */\n      mstore\n        /* \"#utility.yul\":7:125   */\n      pop\n      pop\n      jump\t// out\n        /* \"#utility.yul\":131:240   */\n    tag_35:\n        /* \"#utility.yul\":212:233   */\n      tag_37\n        /* \"#utility.yul\":227:232   */\n      dup2\n        /* \"#utility.yul\":212:233   */\n      tag_38\n      jump\t// in\n    tag_37:\n        /* \"#utility.yul\":207:210   */\n      dup3\n        /* \"#utility.yul\":200:234   */\n      mstore\n        /* \"#utility.yul\":131:240   */\n      pop\n      pop\n      jump\t// out\n        /* \"#utility.yul\":246:610   */\n    tag_39:\n        /* \"#utility.yul\":334:337   */\n      0x00\n        /* \"#utility.yul\":362:401   */\n      tag_41\n        /* \"#utility.yul\":395:400   */\n      dup3\n        /* \"#utility.yul\":362:401   */\n      tag_42\n      jump\t// in\n    tag_41:\n        /* \"#utility.yul\":417:488   */\n      tag_43\n        /* \"#utility.yul\":481:487   */\n      dup2\n        /* \"#utility.yul\":476:479   */\n      dup6\n        /* \"#utility.yul\":417:488   */\n      tag_44\n      jump\t// in\n    tag_43:\n        /* \"#utility.yul\":410:488   */\n      swap4\n      pop\n        /* \"#utility.yul\":497:549   */\n      tag_45\n        /* \"#utility.yul\":542:548   */\n      dup2\n        /* \"#utility.yul\":537:540   */\n      dup6\n        /* \"#utility.yul\":530:534   */\n      0x20\n        /* \"#utility.yul\":523:528   */\n      dup7\n        /* \"#utility.yul\":519:535   */\n      add\n        /* \"#utility.yul\":497:549   */\n      tag_46\n      jump\t// in\n    tag_45:\n        /* \"#utility.yul\":574:603   */\n      tag_47\n        /* \"#utility.yul\":596:602   */\n      dup2\n        /* \"#utility.yul\":574:603   */\n      tag_48\n      jump\t// in\n    tag_47:\n        /* \"#utility.yul\":569:572   */\n      dup5\n        /* \"#utility.yul\":565:604   */\n      add\n        /* \"#utility.yul\":558:604   */\n      swap2\n      pop\n        /* \"#utility.yul\":338:610   */\n      pop\n        /* \"#utility.yul\":246:610   */\n      swap3\n      swap2\n      pop\n      pop\n      jump\t// out\n        /* \"#utility.yul\":616:734   */\n    tag_49:\n        /* \"#utility.yul\":703:727   */\n      tag_51\n        /* \"#utility.yul\":721:726   */\n      dup2\n        /* \"#utility.yul\":703:727   */\n      tag_52\n      jump\t// in\n    tag_51:\n        /* \"#utility.yul\":698:701   */\n      dup3\n        /* \"#utility.yul\":691:728   */\n      mstore\n        /* \"#utility.yul\":616:734   */\n      pop\n      pop\n      jump\t// out\n        /* \"#utility.yul\":740:1594   */\n    tag_10:\n        /* \"#utility.yul\":987:991   */\n      0x00\n        /* \"#utility.yul\":1025:1028   */\n      0xc0\n        /* \"#utility.yul\":1014:1023   */\n      dup3\n        /* \"#utility.yul\":1010:1029   */\n      add\n        /* \"#utility.yul\":1002:1029   */\n      swap1\n      pop\n        /* \"#utility.yul\":1039:1110   */\n      tag_54\n        /* \"#utility.yul\":1107:1108   */\n      0x00\n        /* \"#utility.yul\":1096:1105   */\n      dup4\n        /* \"#utility.yul\":1092:1109   */\n      add\n        /* \"#utility.yul\":1083:1089   */\n      dup10\n        /* \"#utility.yul\":1039:1110   */\n      tag_49\n      jump\t// in\n    tag_54:\n        /* \"#utility.yul\":1120:1192   */\n      tag_55\n        /* \"#utility.yul\":1188:1190   */\n      0x20\n        /* \"#utility.yul\":1177:1186   */\n      dup4\n        /* \"#utility.yul\":1173:1191   */\n      add\n        /* \"#utility.yul\":1164:1170   */\n      dup9\n        /* \"#utility.yul\":1120:1192   */\n      tag_31\n      jump\t// in\n    tag_55:\n        /* \"#utility.yul\":1239:1248   */\n      dup2\n        /* \"#utility.yul\":1233:1237   */\n      dup2\n        /* \"#utility.yul\":1229:1249   */\n      sub\n        /* \"#utility.yul\":1224:1226   */\n      0x40\n        /* \"#utility.yul\":1213:1222   */\n      dup4\n        /* \"#utility.yul\":1209:1227   */\n      add\n        /* \"#utility.yul\":1202:1250   */\n      mstore\n        /* \"#utility.yul\":1267:1345   */\n      tag_56\n        /* \"#utility.yul\":1340:1344   */\n      dup2\n        /* \"#utility.yul\":1331:1337   */\n      dup8\n        /* \"#utility.yul\":1267:1345   */\n      tag_39\n      jump\t// in\n    tag_56:\n        /* \"#utility.yul\":1259:1345   */\n      swap1\n      pop\n        /* \"#utility.yul\":1355:1427   */\n      tag_57\n        /* \"#utility.yul\":1423:1425   */\n      0x60\n        /* \"#utility.yul\":1412:1421   */\n      dup4\n        /* \"#utility.yul\":1408:1426   */\n      add\n        /* \"#utility.yul\":1399:1405   */\n      dup7\n        /* \"#utility.yul\":1355:1427   */\n      tag_49\n      jump\t// in\n    tag_57:\n        /* \"#utility.yul\":1437:1510   */\n      tag_58\n        /* \"#utility.yul\":1505:1508   */\n      0x80\n        /* \"#utility.yul\":1494:1503   */\n      dup4\n        /* \"#utility.yul\":1490:1509   */\n      add\n        /* \"#utility.yul\":1481:1487   */\n      dup6\n        /* \"#utility.yul\":1437:1510   */\n      tag_49\n      jump\t// in\n    tag_58:\n        /* \"#utility.yul\":1520:1587   */\n      tag_59\n        /* \"#utility.yul\":1582:1585   */\n      0xa0\n        /* \"#utility.yul\":1571:1580   */\n      dup4\n        /* \"#utility.yul\":1567:1586   */\n      add\n        /* \"#utility.yul\":1558:1564   */\n      dup5\n        /* \"#utility.yul\":1520:1587   */\n      tag_35\n      jump\t// in\n    tag_59:\n        /* \"#utility.yul\":740:1594   */\n      swap8\n      swap7\n      pop\n      pop\n      pop\n      pop\n      pop\n      pop\n      pop\n      jump\t// out\n        /* \"#utility.yul\":1600:1699   */\n    tag_42:\n        /* \"#utility.yul\":1652:1658   */\n      0x00\n        /* \"#utility.yul\":1686:1691   */\n      dup2\n        /* \"#utility.yul\":1680:1692   */\n      mload\n        /* \"#utility.yul\":1670:1692   */\n      swap1\n      pop\n        /* \"#utility.yul\":1600:1699   */\n      swap2\n      swap1\n      pop\n      jump\t// out\n        /* \"#utility.yul\":1705:1874   */\n    tag_44:\n        /* \"#utility.yul\":1789:1800   */\n      0x00\n        /* \"#utility.yul\":1823:1829   */\n      dup3\n        /* \"#utility.yul\":1818:1821   */\n      dup3\n        /* \"#utility.yul\":1811:1830   */\n      mstore\n        /* \"#utility.yul\":1863:1867   */\n      0x20\n        /* \"#utility.yul\":1858:1861   */\n      dup3\n        /* \"#utility.yul\":1854:1868   */\n      add\n        /* \"#utility.yul\":1839:1868   */\n      swap1\n      pop\n        /* \"#utility.yul\":1705:1874   */\n      swap3\n      swap2\n      pop\n      pop\n      jump\t// out\n        /* \"#utility.yul\":1880:1976   */\n    tag_34:\n        /* \"#utility.yul\":1917:1924   */\n      0x00\n        /* \"#utility.yul\":1946:1970   */\n      tag_63\n        /* \"#utility.yul\":1964:1969   */\n      dup3\n        /* \"#utility.yul\":1946:1970   */\n      tag_64\n      jump\t// in\n    tag_63:\n        /* \"#utility.yul\":1935:1970   */\n      swap1\n      pop\n        /* \"#utility.yul\":1880:1976   */\n      swap2\n      swap1\n      pop\n      jump\t// out\n        /* \"#utility.yul\":1982:2072   */\n    tag_38:\n        /* \"#utility.yul\":2016:2023   */\n      0x00\n        /* \"#utility.yul\":2059:2064   */\n      dup2\n        /* \"#utility.yul\":2052:2065   */\n      iszero\n        /* \"#utility.yul\":2045:2066   */\n      iszero\n        /* \"#utility.yul\":2034:2066   */\n      swap1\n      pop\n        /* \"#utility.yul\":1982:2072   */\n      swap2\n      swap1\n      pop\n      jump\t// out\n        /* \"#utility.yul\":2078:2204   */\n    tag_64:\n        /* \"#utility.yul\":2115:2122   */\n      0x00\n        /* \"#utility.yul\":2155:2197   */\n      0xffffffffffffffffffffffffffffffffffffffff\n        /* \"#utility.yul\":2148:2153   */\n      dup3\n        /* \"#utility.yul\":2144:2198   */\n      and\n        /* \"#utility.yul\":2133:2198   */\n      swap1\n      pop\n        /* \"#utility.yul\":2078:2204   */\n      swap2\n      swap1\n      pop\n      jump\t// out\n        /* \"#utility.yul\":2210:2287   */\n    tag_52:\n        /* \"#utility.yul\":2247:2254   */\n      0x00\n        /* \"#utility.yul\":2276:2281   */\n      dup2\n        /* \"#utility.yul\":2265:2281   */\n      swap1\n      pop\n        /* \"#utility.yul\":2210:2287   */\n      swap2\n      swap1\n      pop\n      jump\t// out\n        /* \"#utility.yul\":2293:2600   */\n    tag_46:\n        /* \"#utility.yul\":2361:2362   */\n      0x00\n        /* \"#utility.yul\":2371:2484   */\n    tag_69:\n        /* \"#utility.yul\":2385:2391   */\n      dup4\n        /* \"#utility.yul\":2382:2383   */\n      dup2\n        /* \"#utility.yul\":2379:2392   */\n      lt\n        /* \"#utility.yul\":2371:2484   */\n      iszero\n      tag_71\n      jumpi\n        /* \"#utility.yul\":2470:2471   */\n      dup1\n        /* \"#utility.yul\":2465:2468   */\n      dup3\n        /* \"#utility.yul\":2461:2472   */\n      add\n        /* \"#utility.yul\":2455:2473   */\n      mload\n        /* \"#utility.yul\":2451:2452   */\n      dup2\n        /* \"#utility.yul\":2446:2449   */\n      dup5\n        /* \"#utility.yul\":2442:2453   */\n      add\n        /* \"#utility.yul\":2435:2474   */\n      mstore\n        /* \"#utility.yul\":2407:2409   */\n      0x20\n        /* \"#utility.yul\":2404:2405   */\n      dup2\n        /* \"#utility.yul\":2400:2410   */\n      add\n        /* \"#utility.yul\":2395:2410   */\n      swap1\n      pop\n        /* \"#utility.yul\":2371:2484   */\n      jump(tag_69)\n    tag_71:\n        /* \"#utility.yul\":2502:2508   */\n      dup4\n        /* \"#utility.yul\":2499:2500   */\n      dup2\n        /* \"#utility.yul\":2496:2509   */\n      gt\n        /* \"#utility.yul\":2493:2594   */\n      iszero\n      tag_72\n      jumpi\n        /* \"#utility.yul\":2582:2583   */\n      0x00\n        /* \"#utility.yul\":2573:2579   */\n      dup5\n        /* \"#utility.yul\":2568:2571   */\n      dup5\n        /* \"#utility.yul\":2564:2580   */\n      add\n        /* \"#utility.yul\":2557:2584   */\n      mstore\n        /* \"#utility.yul\":2493:2594   */\n    tag_72:\n        /* \"#utility.yul\":2342:2600   */\n      pop\n        /* \"#utility.yul\":2293:2600   */\n      pop\n      pop\n      pop\n      jump\t// out\n        /* \"#utility.yul\":2606:2926   */\n    tag_15:\n        /* \"#utility.yul\":2650:2656   */\n      0x00\n        /* \"#utility.yul\":2687:2688   */\n      0x02\n        /* \"#utility.yul\":2681:2685   */\n      dup3\n        /* \"#utility.yul\":2677:2689   */\n      div\n        /* \"#utility.yul\":2667:2689   */\n      swap1\n      pop\n        /* \"#utility.yul\":2734:2735   */\n      0x01\n        /* \"#utility.yul\":2728:2732   */\n      dup3\n        /* \"#utility.yul\":2724:2736   */\n      and\n        /* \"#utility.yul\":2755:2773   */\n      dup1\n        /* \"#utility.yul\":2745:2826   */\n      tag_74\n      jumpi\n        /* \"#utility.yul\":2811:2815   */\n      0x7f\n        /* \"#utility.yul\":2803:2809   */\n      dup3\n        /* \"#utility.yul\":2799:2816   */\n      and\n        /* \"#utility.yul\":2789:2816   */\n      swap2\n      pop\n        /* \"#utility.yul\":2745:2826   */\n    tag_74:\n        /* \"#utility.yul\":2873:2875   */\n      0x20\n        /* \"#utility.yul\":2865:2871   */\n      dup3\n        /* \"#utility.yul\":2862:2876   */\n      lt\n        /* \"#utility.yul\":2842:2860   */\n      dup2\n        /* \"#utility.yul\":2839:2877   */\n      eq\n        /* \"#utility.yul\":2836:2920   */\n      iszero\n      tag_75\n      jumpi\n        /* \"#utility.yul\":2892:2910   */\n      tag_76\n      tag_77\n      jump\t// in\n    tag_76:\n        /* \"#utility.yul\":2836:2920   */\n    tag_75:\n        /* \"#utility.yul\":2657:2926   */\n      pop\n        /* \"#utility.yul\":2606:2926   */\n      swap2\n      swap1\n      pop\n      jump\t// out\n        /* \"#utility.yul\":2932:3112   */\n    tag_77:\n        /* \"#utility.yul\":2980:3057   */\n      0x4e487b7100000000000000000000000000000000000000000000000000000000\n        /* \"#utility.yul\":2977:2978   */\n      0x00\n        /* \"#utility.yul\":2970:3058   */\n      mstore\n        /* \"#utility.yul\":3077:3081   */\n      0x22\n        /* \"#utility.yul\":3074:3075   */\n      0x04\n        /* \"#utility.yul\":3067:3082   */\n      mstore\n        /* \"#utility.yul\":3101:3105   */\n      0x24\n        /* \"#utility.yul\":3098:3099   */\n      0x00\n        /* \"#utility.yul\":3091:3106   */\n      revert\n        /* \"#utility.yul\":3118:3220   */\n    tag_48:\n        /* \"#utility.yul\":3159:3165   */\n      0x00\n        /* \"#utility.yul\":3210:3212   */\n      0x1f\n        /* \"#utility.yul\":3206:3213   */\n      not\n        /* \"#utility.yul\":3201:3203   */\n      0x1f\n        /* \"#utility.yul\":3194:3199   */\n      dup4\n        /* \"#utility.yul\":3190:3204   */\n      add\n        /* \"#utility.yul\":3186:3214   */\n      and\n        /* \"#utility.yul\":3176:3214   */\n      swap1\n      pop\n        /* \"#utility.yul\":3118:3220   */\n      swap2\n      swap1\n      pop\n      jump\t// out\n\n    auxdata: 0xa2646970667358221220ef42c3f9b7398a6b987d7632c536039e9d7c9a82845255b5b6a844fef358846564736f6c63430008070033\n}\n",
				"bytecode": {
					"linkReferences": {},
					"object": "608060405234801561001057600080fd5b50610537806100206000396000f3fe608060405234801561001057600080fd5b50600436106100365760003560e01c806314d75e9d1461003b578063c06fad0614610045575b600080fd5b610043610068565b005b61004d6101a8565b60405161005f96959493929190610390565b60405180910390f35b6040518060c0016040528060018152602001735b38da6a701c568545dcfcb03fcb875f56beddc473ffffffffffffffffffffffffffffffffffffffff1681526020016040518060400160405280600581526020017f526176656e0000000000000000000000000000000000000000000000000000008152508152602001670de0b6b3a7640000815260200142815260200160001515815250600080820151816000015560208201518160010160006101000a81548173ffffffffffffffffffffffffffffffffffffffff021916908373ffffffffffffffffffffffffffffffffffffffff160217905550604082015181600201908051906020019061016e929190610287565b50606082015181600301556080820151816004015560a08201518160050160006101000a81548160ff021916908315150217905550905050565b60008060000154908060010160009054906101000a900473ffffffffffffffffffffffffffffffffffffffff16908060020180546101e59061048f565b80601f01602080910402602001604051908101604052809291908181526020018280546102119061048f565b801561025e5780601f106102335761010080835404028352916020019161025e565b820191906000526020600020905b81548152906001019060200180831161024157829003601f168201915b5050505050908060030154908060040154908060050160009054906101000a900460ff16905086565b8280546102939061048f565b90600052602060002090601f0160209004810192826102b557600085556102fc565b82601f106102ce57805160ff19168380011785556102fc565b828001600101855582156102fc579182015b828111156102fb5782518255916020019190600101906102e0565b5b509050610309919061030d565b5090565b5b8082111561032657600081600090555060010161030e565b5090565b61033381610414565b82525050565b61034281610426565b82525050565b6000610353826103f8565b61035d8185610403565b935061036d81856020860161045c565b610376816104f0565b840191505092915050565b61038a81610452565b82525050565b600060c0820190506103a56000830189610381565b6103b2602083018861032a565b81810360408301526103c48187610348565b90506103d36060830186610381565b6103e06080830185610381565b6103ed60a0830184610339565b979650505050505050565b600081519050919050565b600082825260208201905092915050565b600061041f82610432565b9050919050565b60008115159050919050565b600073ffffffffffffffffffffffffffffffffffffffff82169050919050565b6000819050919050565b60005b8381101561047a57808201518184015260208101905061045f565b83811115610489576000848401525b50505050565b600060028204905060018216806104a757607f821691505b602082108114156104bb576104ba6104c1565b5b50919050565b7f4e487b7100000000000000000000000000000000000000000000000000000000600052602260045260246000fd5b6000601f19601f830116905091905056fea2646970667358221220ef42c3f9b7398a6b987d7632c536039e9d7c9a82845255b5b6a844fef358846564736f6c63430008070033",
					"opcodes": "PUSH1 0x80 PUSH1 0x40 MSTORE CALLVALUE DUP1 ISZERO PUSH2 0x10 JUMPI PUSH1 0x0 DUP1 REVERT JUMPDEST POP PUSH2 0x537 DUP1 PUSH2 0x20 PUSH1 0x0 CODECOPY PUSH1 0x0 RETURN INVALID PUSH1 0x80 PUSH1 0x40 MSTORE CALLVALUE DUP1 ISZERO PUSH2 0x10 JUMPI PUSH1 0x0 DUP1 REVERT JUMPDEST POP PUSH1 0x4 CALLDATASIZE LT PUSH2 0x36 JUMPI PUSH1 0x0 CALLDATALOAD PUSH1 0xE0 SHR DUP1 PUSH4 0x14D75E9D EQ PUSH2 0x3B JUMPI DUP1 PUSH4 0xC06FAD06 EQ PUSH2 0x45 JUMPI JUMPDEST PUSH1 0x0 DUP1 REVERT JUMPDEST PUSH2 0x43 PUSH2 0x68 JUMP JUMPDEST STOP JUMPDEST PUSH2 0x4D PUSH2 0x1A8 JUMP JUMPDEST PUSH1 0x40 MLOAD PUSH2 0x5F SWAP7 SWAP6 SWAP5 SWAP4 SWAP3 SWAP2 SWAP1 PUSH2 0x390 JUMP JUMPDEST PUSH1 0x40 MLOAD DUP1 SWAP2 SUB SWAP1 RETURN JUMPDEST PUSH1 0x40 MLOAD DUP1 PUSH1 0xC0 ADD PUSH1 0x40 MSTORE DUP1 PUSH1 0x1 DUP2 MSTORE PUSH1 0x20 ADD PUSH20 0x5B38DA6A701C568545DCFCB03FCB875F56BEDDC4 PUSH20 0xFFFFFFFFFFFFFFFFFFFFFFFFFFFFFFFFFFFFFFFF AND DUP2 MSTORE PUSH1 0x20 ADD PUSH1 0x40 MLOAD DUP1 PUSH1 0x40 ADD PUSH1 0x40 MSTORE DUP1 PUSH1 0x5 DUP2 MSTORE PUSH1 0x20 ADD PUSH32 0x526176656E000000000000000000000000000000000000000000000000000000 DUP2 MSTORE POP DUP2 MSTORE PUSH1 0x20 ADD PUSH8 0xDE0B6B3A7640000 DUP2 MSTORE PUSH1 0x20 ADD TIMESTAMP DUP2 MSTORE PUSH1 0x20 ADD PUSH1 0x0 ISZERO ISZERO DUP2 MSTORE POP PUSH1 0x0 DUP1 DUP3 ADD MLOAD DUP2 PUSH1 0x0 ADD SSTORE PUSH1 0x20 DUP3 ADD MLOAD DUP2 PUSH1 0x1 ADD PUSH1 0x0 PUSH2 0x100 EXP DUP2 SLOAD DUP2 PUSH20 0xFFFFFFFFFFFFFFFFFFFFFFFFFFFFFFFFFFFFFFFF MUL NOT AND SWAP1 DUP4 PUSH20 0xFFFFFFFFFFFFFFFFFFFFFFFFFFFFFFFFFFFFFFFF AND MUL OR SWAP1 SSTORE POP PUSH1 0x40 DUP3 ADD MLOAD DUP2 PUSH1 0x2 ADD SWAP1 DUP1 MLOAD SWAP1 PUSH1 0x20 ADD SWAP1 PUSH2 0x16E SWAP3 SWAP2 SWAP1 PUSH2 0x287 JUMP JUMPDEST POP PUSH1 0x60 DUP3 ADD MLOAD DUP2 PUSH1 0x3 ADD SSTORE PUSH1 0x80 DUP3 ADD MLOAD DUP2 PUSH1 0x4 ADD SSTORE PUSH1 0xA0 DUP3 ADD MLOAD DUP2 PUSH1 0x5 ADD PUSH1 0x0 PUSH2 0x100 EXP DUP2 SLOAD DUP2 PUSH1 0xFF MUL NOT AND SWAP1 DUP4 ISZERO ISZERO MUL OR SWAP1 SSTORE POP SWAP1 POP POP JUMP JUMPDEST PUSH1 0x0 DUP1 PUSH1 0x0 ADD SLOAD SWAP1 DUP1 PUSH1 0x1 ADD PUSH1 0x0 SWAP1 SLOAD SWAP1 PUSH2 0x100 EXP SWAP1 DIV PUSH20 0xFFFFFFFFFFFFFFFFFFFFFFFFFFFFFFFFFFFFFFFF AND SWAP1 DUP1 PUSH1 0x2 ADD DUP1 SLOAD PUSH2 0x1E5 SWAP1 PUSH2 0x48F JUMP JUMPDEST DUP1 PUSH1 0x1F ADD PUSH1 0x20 DUP1 SWAP2 DIV MUL PUSH1 0x20 ADD PUSH1 0x40 MLOAD SWAP1 DUP2 ADD PUSH1 0x40 MSTORE DUP1 SWAP3 SWAP2 SWAP1 DUP2 DUP2 MSTORE PUSH1 0x20 ADD DUP3 DUP1 SLOAD PUSH2 0x211 SWAP1 PUSH2 0x48F JUMP JUMPDEST DUP1 ISZERO PUSH2 0x25E JUMPI DUP1 PUSH1 0x1F LT PUSH2 0x233 JUMPI PUSH2 0x100 DUP1 DUP4 SLOAD DIV MUL DUP4 MSTORE SWAP2 PUSH1 0x20 ADD SWAP2 PUSH2 0x25E JUMP JUMPDEST DUP3 ADD SWAP2 SWAP1 PUSH1 0x0 MSTORE PUSH1 0x20 PUSH1 0x0 KECCAK256 SWAP1 JUMPDEST DUP2 SLOAD DUP2 MSTORE SWAP1 PUSH1 0x1 ADD SWAP1 PUSH1 0x20 ADD DUP1 DUP4 GT PUSH2 0x241 JUMPI DUP3 SWAP1 SUB PUSH1 0x1F AND DUP3 ADD SWAP2 JUMPDEST POP POP POP POP POP SWAP1 DUP1 PUSH1 0x3 ADD SLOAD SWAP1 DUP1 PUSH1 0x4 ADD SLOAD SWAP1 DUP1 PUSH1 0x5 ADD PUSH1 0x0 SWAP1 SLOAD SWAP1 PUSH2 0x100 EXP SWAP1 DIV PUSH1 0xFF AND SWAP1 POP DUP7 JUMP JUMPDEST DUP3 DUP1 SLOAD PUSH2 0x293 SWAP1 PUSH2 0x48F JUMP JUMPDEST SWAP1 PUSH1 0x0 MSTORE PUSH1 0x20 PUSH1 0x0 KECCAK256 SWAP1 PUSH1 0x1F ADD PUSH1 0x20 SWAP1 DIV DUP2 ADD SWAP3 DUP3 PUSH2 0x2B5 JUMPI PUSH1 0x0 DUP6 SSTORE PUSH2 0x2FC JUMP JUMPDEST DUP3 PUSH1 0x1F LT PUSH2 0x2CE JUMPI DUP1 MLOAD PUSH1 0xFF NOT AND DUP4 DUP1 ADD OR DUP6 SSTORE PUSH2 0x2FC JUMP JUMPDEST DUP3 DUP1 ADD PUSH1 0x1 ADD DUP6 SSTORE DUP3 ISZERO PUSH2 0x2FC JUMPI SWAP2 DUP3 ADD JUMPDEST DUP3 DUP2 GT ISZERO PUSH2 0x2FB JUMPI DUP3 MLOAD DUP3 SSTORE SWAP2 PUSH1 0x20 ADD SWAP2 SWAP1 PUSH1 0x1 ADD SWAP1 PUSH2 0x2E0 JUMP JUMPDEST JUMPDEST POP SWAP1 POP PUSH2 0x309 SWAP2 SWAP1 PUSH2 0x30D JUMP JUMPDEST POP SWAP1 JUMP JUMPDEST JUMPDEST DUP1 DUP3 GT ISZERO PUSH2 0x326 JUMPI PUSH1 0x0 DUP2 PUSH1 0x0 SWAP1 SSTORE POP PUSH1 0x1 ADD PUSH2 0x30E JUMP JUMPDEST POP SWAP1 JUMP JUMPDEST PUSH2 0x333 DUP2 PUSH2 0x414 JUMP JUMPDEST DUP3 MSTORE POP POP JUMP JUMPDEST PUSH2 0x342 DUP2 PUSH2 0x426 JUMP JUMPDEST DUP3 MSTORE POP POP JUMP JUMPDEST PUSH1 0x0 PUSH2 0x353 DUP3 PUSH2 0x3F8 JUMP JUMPDEST PUSH2 0x35D DUP2 DUP6 PUSH2 0x403 JUMP JUMPDEST SWAP4 POP PUSH2 0x36D DUP2 DUP6 PUSH1 0x20 DUP7 ADD PUSH2 0x45C JUMP JUMPDEST PUSH2 0x376 DUP2 PUSH2 0x4F0 JUMP JUMPDEST DUP5 ADD SWAP2 POP POP SWAP3 SWAP2 POP POP JUMP JUMPDEST PUSH2 0x38A DUP2 PUSH2 0x452 JUMP JUMPDEST DUP3 MSTORE POP POP JUMP JUMPDEST PUSH1 0x0 PUSH1 0xC0 DUP3 ADD SWAP1 POP PUSH2 0x3A5 PUSH1 0x0 DUP4 ADD DUP10 PUSH2 0x381 JUMP JUMPDEST PUSH2 0x3B2 PUSH1 0x20 DUP4 ADD DUP9 PUSH2 0x32A JUMP JUMPDEST DUP2 DUP2 SUB PUSH1 0x40 DUP4 ADD MSTORE PUSH2 0x3C4 DUP2 DUP8 PUSH2 0x348 JUMP JUMPDEST SWAP1 POP PUSH2 0x3D3 PUSH1 0x60 DUP4 ADD DUP7 PUSH2 0x381 JUMP JUMPDEST PUSH2 0x3E0 PUSH1 0x80 DUP4 ADD DUP6 PUSH2 0x381 JUMP JUMPDEST PUSH2 0x3ED PUSH1 0xA0 DUP4 ADD DUP5 PUSH2 0x339 JUMP JUMPDEST SWAP8 SWAP7 POP POP POP POP POP POP POP JUMP JUMPDEST PUSH1 0x0 DUP2 MLOAD SWAP1 POP SWAP2 SWAP1 POP JUMP JUMPDEST PUSH1 0x0 DUP3 DUP3 MSTORE PUSH1 0x20 DUP3 ADD SWAP1 POP SWAP3 SWAP2 POP POP JUMP JUMPDEST PUSH1 0x0 PUSH2 0x41F DUP3 PUSH2 0x432 JUMP JUMPDEST SWAP1 POP SWAP2 SWAP1 POP JUMP JUMPDEST PUSH1 0x0 DUP2 ISZERO ISZERO SWAP1 POP SWAP2 SWAP1 POP JUMP JUMPDEST PUSH1 0x0 PUSH20 0xFFFFFFFFFFFFFFFFFFFFFFFFFFFFFFFFFFFFFFFF DUP3 AND SWAP1 POP SWAP2 SWAP1 POP JUMP JUMPDEST PUSH1 0x0 DUP2 SWAP1 POP SWAP2 SWAP1 POP JUMP JUMPDEST PUSH1 0x0 JUMPDEST DUP4 DUP2 LT ISZERO PUSH2 0x47A JUMPI DUP1 DUP3 ADD MLOAD DUP2 DUP5 ADD MSTORE PUSH1 0x20 DUP2 ADD SWAP1 POP PUSH2 0x45F JUMP JUMPDEST DUP4 DUP2 GT ISZERO PUSH2 0x489 JUMPI PUSH1 0x0 DUP5 DUP5 ADD MSTORE JUMPDEST POP POP POP POP JUMP JUMPDEST PUSH1 0x0 PUSH1 0x2 DUP3 DIV SWAP1 POP PUSH1 0x1 DUP3 AND DUP1 PUSH2 0x4A7 JUMPI PUSH1 0x7F DUP3 AND SWAP2 POP JUMPDEST PUSH1 0x20 DUP3 LT DUP2 EQ ISZERO PUSH2 0x4BB JUMPI PUSH2 0x4BA PUSH2 0x4C1 JUMP JUMPDEST JUMPDEST POP SWAP2 SWAP1 POP JUMP JUMPDEST PUSH32 0x4E487B7100000000000000000000000000000000000000000000000000000000 PUSH1 0x0 MSTORE PUSH1 0x22 PUSH1 0x4 MSTORE PUSH1 0x24 PUSH1 0x0 REVERT JUMPDEST PUSH1 0x0 PUSH1 0x1F NOT PUSH1 0x1F DUP4 ADD AND SWAP1 POP SWAP2 SWAP1 POP JUMP INVALID LOG2 PUSH5 0x6970667358 0x22 SLT KECCAK256 0xEF TIMESTAMP 0xC3 0xF9 0xB7 CODECOPY DUP11 PUSH12 0x987D7632C536039E9D7C9A82 DUP5 MSTORE SSTORE 0xB5 0xB6 0xA8 DIFFICULTY INVALID RETURN PC DUP5 PUSH6 0x64736F6C6343 STOP ADDMOD SMOD STOP CALLER "
				},
				"gasEstimates": {
					"creation": {
						"codeDepositCost": "267000",
						"executionCost": "306",
						"totalCost": "267306"
					},
					"external": {
						"createProduct()": "infinite",
						"items()": "infinite"
					}
				},
				"methodIdentifiers": {
					"createProduct()": "14d75e9d",
					"items()": "c06fad06"
				}
			},
			"storageLayout": {
				"storage": [
					{
						"astId": 161,
						"contract": "contracts/Demo.sol:PracticeStruct",
						"label": "items",
						"offset": 0,
						"slot": "0",
						"type": "t_struct(productStruct)174_storage"
					}
				],
				"types": {
					"t_address": {
						"encoding": "inplace",
						"label": "address",
						"numberOfBytes": "20"
					},
					"t_bool": {
						"encoding": "inplace",
						"label": "bool",
						"numberOfBytes": "1"
					},
					"t_string_storage": {
						"encoding": "bytes",
						"label": "string",
						"numberOfBytes": "32"
					},
					"t_struct(productStruct)174_storage": {
						"encoding": "inplace",
						"label": "struct PracticeStruct.productStruct",
						"members": [
							{
								"astId": 163,
								"contract": "contracts/Demo.sol:PracticeStruct",
								"label": "id",
								"offset": 0,
								"slot": "0",
								"type": "t_uint256"
							},
							{
								"astId": 165,
								"contract": "contracts/Demo.sol:PracticeStruct",
								"label": "owner",
								"offset": 0,
								"slot": "1",
								"type": "t_address"
							},
							{
								"astId": 167,
								"contract": "contracts/Demo.sol:PracticeStruct",
								"label": "name",
								"offset": 0,
								"slot": "2",
								"type": "t_string_storage"
							},
							{
								"astId": 169,
								"contract": "contracts/Demo.sol:PracticeStruct",
								"label": "price",
								"offset": 0,
								"slot": "3",
								"type": "t_uint256"
							},
							{
								"astId": 171,
								"contract": "contracts/Demo.sol:PracticeStruct",
								"label": "createdAt",
								"offset": 0,
								"slot": "4",
								"type": "t_uint256"
							},
							{
								"astId": 173,
								"contract": "contracts/Demo.sol:PracticeStruct",
								"label": "deleted",
								"offset": 0,
								"slot": "5",
								"type": "t_bool"
							}
						],
						"numberOfBytes": "192"
					},
					"t_uint256": {
						"encoding": "inplace",
						"label": "uint256",
						"numberOfBytes": "32"
					}
				}
			},
			"userdoc": {
				"kind": "user",
				"methods": {},
				"version": 1
			}
		}
	}
}