{
	"contracts/Demo.sol": {
		"Demo": {
			"abi": [
				{
					"inputs": [],
					"name": "getAnswer",
					"outputs": [],
					"stateMutability": "nonpayable",
					"type": "function"
				},
				{
					"inputs": [],
					"name": "score",
					"outputs": [
						{
							"internalType": "uint256",
							"name": "",
							"type": "uint256"
						}
					],
					"stateMutability": "view",
					"type": "function"
				}
			],
			"devdoc": {
				"kind": "dev",
				"methods": {},
				"version": 1
			},
			"evm": {
				"assembly": "    /* \"contracts/Demo.sol\":86:397  contract Demo {... */\n  mstore(0x40, 0x80)\n  callvalue\n  dup1\n  iszero\n  tag_1\n  jumpi\n  0x00\n  dup1\n  revert\ntag_1:\n  pop\n  dataSize(sub_0)\n  dup1\n  dataOffset(sub_0)\n  0x00\n  codecopy\n  0x00\n  return\nstop\n\nsub_0: assembly {\n        /* \"contracts/Demo.sol\":86:397  contract Demo {... */\n      mstore(0x40, 0x80)\n      callvalue\n      dup1\n      iszero\n      tag_1\n      jumpi\n      0x00\n      dup1\n      revert\n    tag_1:\n      pop\n      jumpi(tag_2, lt(calldatasize, 0x04))\n      shr(0xe0, calldataload(0x00))\n      dup1\n      0x9c16667c\n      eq\n      tag_3\n      jumpi\n      dup1\n      0xefedc669\n      eq\n      tag_4\n      jumpi\n    tag_2:\n      0x00\n      dup1\n      revert\n        /* \"contracts/Demo.sol\":134:266  function getAnswer() public {... */\n    tag_3:\n      tag_5\n      tag_6\n      jump\t// in\n    tag_5:\n      stop\n        /* \"contracts/Demo.sol\":106:123  uint public score */\n    tag_4:\n      tag_7\n      tag_8\n      jump\t// in\n    tag_7:\n      mload(0x40)\n      tag_9\n      swap2\n      swap1\n      tag_10\n      jump\t// in\n    tag_9:\n      mload(0x40)\n      dup1\n      swap2\n      sub\n      swap1\n      return\n        /* \"contracts/Demo.sol\":134:266  function getAnswer() public {... */\n    tag_6:\n        /* \"contracts/Demo.sol\":172:178  uint a */\n      0x00\n        /* \"contracts/Demo.sol\":181:182  1 */\n      0x01\n        /* \"contracts/Demo.sol\":172:182  uint a = 1 */\n      swap1\n      pop\n        /* \"contracts/Demo.sol\":192:198  uint b */\n      0x00\n        /* \"contracts/Demo.sol\":201:202  2 */\n      0x02\n        /* \"contracts/Demo.sol\":192:202  uint b = 2 */\n      swap1\n      pop\n        /* \"contracts/Demo.sol\":212:220  uint ans */\n      0x00\n        /* \"contracts/Demo.sol\":227:228  b */\n      dup2\n        /* \"contracts/Demo.sol\":223:224  a */\n      dup4\n        /* \"contracts/Demo.sol\":223:228  a + b */\n      tag_12\n      swap2\n      swap1\n      tag_13\n      jump\t// in\n    tag_12:\n        /* \"contracts/Demo.sol\":212:228  uint ans = a + b */\n      swap1\n      pop\n        /* \"contracts/Demo.sol\":247:259  getRoot(ans) */\n      tag_14\n        /* \"contracts/Demo.sol\":255:258  ans */\n      dup2\n        /* \"contracts/Demo.sol\":247:254  getRoot */\n      tag_15\n        /* \"contracts/Demo.sol\":247:259  getRoot(ans) */\n      jump\t// in\n    tag_14:\n        /* \"contracts/Demo.sol\":239:244  score */\n      0x00\n        /* \"contracts/Demo.sol\":239:259  score = getRoot(ans) */\n      dup2\n      swap1\n      sstore\n      pop\n        /* \"contracts/Demo.sol\":162:266  {... */\n      pop\n      pop\n      pop\n        /* \"contracts/Demo.sol\":134:266  function getAnswer() public {... */\n      jump\t// out\n        /* \"contracts/Demo.sol\":106:123  uint public score */\n    tag_8:\n      sload(0x00)\n      dup2\n      jump\t// out\n        /* \"contracts/Demo.sol\":272:395  function getRoot(uint ans) internal pure returns (uint) {... */\n    tag_15:\n        /* \"contracts/Demo.sol\":322:326  uint */\n      0x00\n        /* \"contracts/Demo.sol\":351:354  ans */\n      dup2\n        /* \"contracts/Demo.sol\":345:348  ans */\n      dup3\n        /* \"contracts/Demo.sol\":345:354  ans * ans */\n      tag_17\n      swap2\n      swap1\n      tag_18\n      jump\t// in\n    tag_17:\n        /* \"contracts/Demo.sol\":338:354  return ans * ans */\n      swap1\n      pop\n        /* \"contracts/Demo.sol\":272:395  function getRoot(uint ans) internal pure returns (uint) {... */\n      swap2\n      swap1\n      pop\n      jump\t// out\n        /* \"#utility.yul\":7:125   */\n    tag_20:\n        /* \"#utility.yul\":94:118   */\n      tag_22\n        /* \"#utility.yul\":112:117   */\n      dup2\n        /* \"#utility.yul\":94:118   */\n      tag_23\n      jump\t// in\n    tag_22:\n        /* \"#utility.yul\":89:92   */\n      dup3\n        /* \"#utility.yul\":82:119   */\n      mstore\n        /* \"#utility.yul\":7:125   */\n      pop\n      pop\n      jump\t// out\n        /* \"#utility.yul\":131:353   */\n    tag_10:\n        /* \"#utility.yul\":224:228   */\n      0x00\n        /* \"#utility.yul\":262:264   */\n      0x20\n        /* \"#utility.yul\":251:260   */\n      dup3\n        /* \"#utility.yul\":247:265   */\n      add\n        /* \"#utility.yul\":239:265   */\n      swap1\n      pop\n        /* \"#utility.yul\":275:346   */\n      tag_25\n        /* \"#utility.yul\":343:344   */\n      0x00\n        /* \"#utility.yul\":332:341   */\n      dup4\n        /* \"#utility.yul\":328:345   */\n      add\n        /* \"#utility.yul\":319:325   */\n      dup5\n        /* \"#utility.yul\":275:346   */\n      tag_20\n      jump\t// in\n    tag_25:\n        /* \"#utility.yul\":131:353   */\n      swap3\n      swap2\n      pop\n      pop\n      jump\t// out\n        /* \"#utility.yul\":359:664   */\n    tag_13:\n        /* \"#utility.yul\":399:402   */\n      0x00\n        /* \"#utility.yul\":418:438   */\n      tag_27\n        /* \"#utility.yul\":436:437   */\n      dup3\n        /* \"#utility.yul\":418:438   */\n      tag_23\n      jump\t// in\n    tag_27:\n        /* \"#utility.yul\":413:438   */\n      swap2\n      pop\n        /* \"#utility.yul\":452:472   */\n      tag_28\n        /* \"#utility.yul\":470:471   */\n      dup4\n        /* \"#utility.yul\":452:472   */\n      tag_23\n      jump\t// in\n    tag_28:\n        /* \"#utility.yul\":447:472   */\n      swap3\n      pop\n        /* \"#utility.yul\":606:607   */\n      dup3\n        /* \"#utility.yul\":538:604   */\n      0xffffffffffffffffffffffffffffffffffffffffffffffffffffffffffffffff\n        /* \"#utility.yul\":534:608   */\n      sub\n        /* \"#utility.yul\":531:532   */\n      dup3\n        /* \"#utility.yul\":528:609   */\n      gt\n        /* \"#utility.yul\":525:632   */\n      iszero\n      tag_29\n      jumpi\n        /* \"#utility.yul\":612:630   */\n      tag_30\n      tag_31\n      jump\t// in\n    tag_30:\n        /* \"#utility.yul\":525:632   */\n    tag_29:\n        /* \"#utility.yul\":656:657   */\n      dup3\n        /* \"#utility.yul\":653:654   */\n      dup3\n        /* \"#utility.yul\":649:658   */\n      add\n        /* \"#utility.yul\":642:658   */\n      swap1\n      pop\n        /* \"#utility.yul\":359:664   */\n      swap3\n      swap2\n      pop\n      pop\n      jump\t// out\n        /* \"#utility.yul\":670:1018   */\n    tag_18:\n        /* \"#utility.yul\":710:717   */\n      0x00\n        /* \"#utility.yul\":733:753   */\n      tag_33\n        /* \"#utility.yul\":751:752   */\n      dup3\n        /* \"#utility.yul\":733:753   */\n      tag_23\n      jump\t// in\n    tag_33:\n        /* \"#utility.yul\":728:753   */\n      swap2\n      pop\n        /* \"#utility.yul\":767:787   */\n      tag_34\n        /* \"#utility.yul\":785:786   */\n      dup4\n        /* \"#utility.yul\":767:787   */\n      tag_23\n      jump\t// in\n    tag_34:\n        /* \"#utility.yul\":762:787   */\n      swap3\n      pop\n        /* \"#utility.yul\":955:956   */\n      dup2\n        /* \"#utility.yul\":887:953   */\n      0xffffffffffffffffffffffffffffffffffffffffffffffffffffffffffffffff\n        /* \"#utility.yul\":883:957   */\n      div\n        /* \"#utility.yul\":880:881   */\n      dup4\n        /* \"#utility.yul\":877:958   */\n      gt\n        /* \"#utility.yul\":872:873   */\n      dup3\n        /* \"#utility.yul\":865:874   */\n      iszero\n        /* \"#utility.yul\":858:875   */\n      iszero\n        /* \"#utility.yul\":854:959   */\n      and\n        /* \"#utility.yul\":851:982   */\n      iszero\n      tag_35\n      jumpi\n        /* \"#utility.yul\":962:980   */\n      tag_36\n      tag_31\n      jump\t// in\n    tag_36:\n        /* \"#utility.yul\":851:982   */\n    tag_35:\n        /* \"#utility.yul\":1010:1011   */\n      dup3\n        /* \"#utility.yul\":1007:1008   */\n      dup3\n        /* \"#utility.yul\":1003:1012   */\n      mul\n        /* \"#utility.yul\":992:1012   */\n      swap1\n      pop\n        /* \"#utility.yul\":670:1018   */\n      swap3\n      swap2\n      pop\n      pop\n      jump\t// out\n        /* \"#utility.yul\":1024:1101   */\n    tag_23:\n        /* \"#utility.yul\":1061:1068   */\n      0x00\n        /* \"#utility.yul\":1090:1095   */\n      dup2\n        /* \"#utility.yul\":1079:1095   */\n      swap1\n      pop\n        /* \"#utility.yul\":1024:1101   */\n      swap2\n      swap1\n      pop\n      jump\t// out\n        /* \"#utility.yul\":1107:1287   */\n    tag_31:\n        /* \"#utility.yul\":1155:1232   */\n      0x4e487b7100000000000000000000000000000000000000000000000000000000\n        /* \"#utility.yul\":1152:1153   */\n      0x00\n        /* \"#utility.yul\":1145:1233   */\n      mstore\n        /* \"#utility.yul\":1252:1256   */\n      0x11\n        /* \"#utility.yul\":1249:1250   */\n      0x04\n        /* \"#utility.yul\":1242:1257   */\n      mstore\n        /* \"#utility.yul\":1276:1280   */\n      0x24\n        /* \"#utility.yul\":1273:1274   */\n      0x00\n        /* \"#utility.yul\":1266:1281   */\n      revert\n\n    auxdata: 0xa2646970667358221220eecef92325c2041fc57f99a38a4eb0927a0c6ba5c58b8117b69d1809a142b8e064736f6c63430008070033\n}\n",
				"bytecode": {
					"linkReferences": {},
					"object": "608060405234801561001057600080fd5b506101f7806100206000396000f3fe608060405234801561001057600080fd5b50600436106100365760003560e01c80639c16667c1461003b578063efedc66914610045575b600080fd5b610043610063565b005b61004d610093565b60405161005a91906100bd565b60405180910390f35b6000600190506000600290506000818361007d91906100d8565b905061008881610099565b600081905550505050565b60005481565b600081826100a7919061012e565b9050919050565b6100b781610188565b82525050565b60006020820190506100d260008301846100ae565b92915050565b60006100e382610188565b91506100ee83610188565b9250827fffffffffffffffffffffffffffffffffffffffffffffffffffffffffffffffff0382111561012357610122610192565b5b828201905092915050565b600061013982610188565b915061014483610188565b9250817fffffffffffffffffffffffffffffffffffffffffffffffffffffffffffffffff048311821515161561017d5761017c610192565b5b828202905092915050565b6000819050919050565b7f4e487b7100000000000000000000000000000000000000000000000000000000600052601160045260246000fdfea2646970667358221220eecef92325c2041fc57f99a38a4eb0927a0c6ba5c58b8117b69d1809a142b8e064736f6c63430008070033",
					"opcodes": "PUSH1 0x80 PUSH1 0x40 MSTORE CALLVALUE DUP1 ISZERO PUSH2 0x10 JUMPI PUSH1 0x0 DUP1 REVERT JUMPDEST POP PUSH2 0x1F7 DUP1 PUSH2 0x20 PUSH1 0x0 CODECOPY PUSH1 0x0 RETURN INVALID PUSH1 0x80 PUSH1 0x40 MSTORE CALLVALUE DUP1 ISZERO PUSH2 0x10 JUMPI PUSH1 0x0 DUP1 REVERT JUMPDEST POP PUSH1 0x4 CALLDATASIZE LT PUSH2 0x36 JUMPI PUSH1 0x0 CALLDATALOAD PUSH1 0xE0 SHR DUP1 PUSH4 0x9C16667C EQ PUSH2 0x3B JUMPI DUP1 PUSH4 0xEFEDC669 EQ PUSH2 0x45 JUMPI JUMPDEST PUSH1 0x0 DUP1 REVERT JUMPDEST PUSH2 0x43 PUSH2 0x63 JUMP JUMPDEST STOP JUMPDEST PUSH2 0x4D PUSH2 0x93 JUMP JUMPDEST PUSH1 0x40 MLOAD PUSH2 0x5A SWAP2 SWAP1 PUSH2 0xBD JUMP JUMPDEST PUSH1 0x40 MLOAD DUP1 SWAP2 SUB SWAP1 RETURN JUMPDEST PUSH1 0x0 PUSH1 0x1 SWAP1 POP PUSH1 0x0 PUSH1 0x2 SWAP1 POP PUSH1 0x0 DUP2 DUP4 PUSH2 0x7D SWAP2 SWAP1 PUSH2 0xD8 JUMP JUMPDEST SWAP1 POP PUSH2 0x88 DUP2 PUSH2 0x99 JUMP JUMPDEST PUSH1 0x0 DUP2 SWAP1 SSTORE POP POP POP POP JUMP JUMPDEST PUSH1 0x0 SLOAD DUP2 JUMP JUMPDEST PUSH1 0x0 DUP2 DUP3 PUSH2 0xA7 SWAP2 SWAP1 PUSH2 0x12E JUMP JUMPDEST SWAP1 POP SWAP2 SWAP1 POP JUMP JUMPDEST PUSH2 0xB7 DUP2 PUSH2 0x188 JUMP JUMPDEST DUP3 MSTORE POP POP JUMP JUMPDEST PUSH1 0x0 PUSH1 0x20 DUP3 ADD SWAP1 POP PUSH2 0xD2 PUSH1 0x0 DUP4 ADD DUP5 PUSH2 0xAE JUMP JUMPDEST SWAP3 SWAP2 POP POP JUMP JUMPDEST PUSH1 0x0 PUSH2 0xE3 DUP3 PUSH2 0x188 JUMP JUMPDEST SWAP2 POP PUSH2 0xEE DUP4 PUSH2 0x188 JUMP JUMPDEST SWAP3 POP DUP3 PUSH32 0xFFFFFFFFFFFFFFFFFFFFFFFFFFFFFFFFFFFFFFFFFFFFFFFFFFFFFFFFFFFFFFFF SUB DUP3 GT ISZERO PUSH2 0x123 JUMPI PUSH2 0x122 PUSH2 0x192 JUMP JUMPDEST JUMPDEST DUP3 DUP3 ADD SWAP1 POP SWAP3 SWAP2 POP POP JUMP JUMPDEST PUSH1 0x0 PUSH2 0x139 DUP3 PUSH2 0x188 JUMP JUMPDEST SWAP2 POP PUSH2 0x144 DUP4 PUSH2 0x188 JUMP JUMPDEST SWAP3 POP DUP2 PUSH32 0xFFFFFFFFFFFFFFFFFFFFFFFFFFFFFFFFFFFFFFFFFFFFFFFFFFFFFFFFFFFFFFFF DIV DUP4 GT DUP3 ISZERO ISZERO AND ISZERO PUSH2 0x17D JUMPI PUSH2 0x17C PUSH2 0x192 JUMP JUMPDEST JUMPDEST DUP3 DUP3 MUL SWAP1 POP SWAP3 SWAP2 POP POP JUMP JUMPDEST PUSH1 0x0 DUP2 SWAP1 POP SWAP2 SWAP1 POP JUMP JUMPDEST PUSH32 0x4E487B7100000000000000000000000000000000000000000000000000000000 PUSH1 0x0 MSTORE PUSH1 0x11 PUSH1 0x4 MSTORE PUSH1 0x24 PUSH1 0x0 REVERT INVALID LOG2 PUSH5 0x6970667358 0x22 SLT KECCAK256 0xEE 0xCE 0xF9 0x23 0x25 0xC2 DIV 0x1F 0xC5 PUSH32 0x99A38A4EB0927A0C6BA5C58B8117B69D1809A142B8E064736F6C634300080700 CALLER "
				},
				"gasEstimates": {
					"creation": {
						"codeDepositCost": "100600",
						"executionCost": "147",
						"totalCost": "100747"
					},
					"external": {
						"getAnswer()": "infinite",
						"score()": "2429"
					},
					"internal": {
						"getRoot(uint256)": "infinite"
					}
				},
				"methodIdentifiers": {
					"getAnswer()": "9c16667c",
					"score()": "efedc669"
				}
			},
			"storageLayout": {
				"storage": [
					{
						"astId": 3,
						"contract": "contracts/Demo.sol:Demo",
						"label": "score",
						"offset": 0,
						"slot": "0",
						"type": "t_uint256"
					}
				],
				"types": {
					"t_uint256": {
						"encoding": "inplace",
						"label": "uint256",
						"numberOfBytes": "32"
					}
				}
			},
			"userdoc": {
				"kind": "user",
				"methods": {},
				"version": 1
			}
		}
	}
}