{
	"contracts/Demo.sol": {
		"Testing": {
			"abi": [
				{
					"inputs": [],
					"stateMutability": "nonpayable",
					"type": "constructor"
				},
				{
					"inputs": [],
					"name": "getAccount",
					"outputs": [
						{
							"internalType": "address",
							"name": "",
							"type": "address"
						},
						{
							"internalType": "uint256",
							"name": "",
							"type": "uint256"
						}
					],
					"stateMutability": "view",
					"type": "function"
				},
				{
					"inputs": [],
					"name": "owner",
					"outputs": [
						{
							"internalType": "address",
							"name": "",
							"type": "address"
						}
					],
					"stateMutability": "view",
					"type": "function"
				},
				{
					"inputs": [],
					"name": "receiveMoney",
					"outputs": [
						{
							"internalType": "bool",
							"name": "",
							"type": "bool"
						}
					],
					"stateMutability": "payable",
					"type": "function"
				},
				{
					"inputs": [
						{
							"internalType": "address payable",
							"name": "_account",
							"type": "address"
						},
						{
							"internalType": "uint256",
							"name": "_amount",
							"type": "uint256"
						}
					],
					"name": "sendMoney",
					"outputs": [
						{
							"internalType": "bool",
							"name": "",
							"type": "bool"
						}
					],
					"stateMutability": "nonpayable",
					"type": "function"
				}
			],
			"devdoc": {
				"kind": "dev",
				"methods": {},
				"version": 1
			},
			"evm": {
				"assembly": "    /* \"contracts/Demo.sol\":3047:4124  contract Testing{... */\n  mstore(0x40, 0x80)\n    /* \"contracts/Demo.sol\":3158:3206  constructor(){... */\n  callvalue\n  dup1\n  iszero\n  tag_1\n  jumpi\n  0x00\n  dup1\n  revert\ntag_1:\n  pop\n    /* \"contracts/Demo.sol\":3189:3199  msg.sender */\n  caller\n    /* \"contracts/Demo.sol\":3181:3186  owner */\n  0x00\n  dup1\n    /* \"contracts/Demo.sol\":3181:3199  owner = msg.sender */\n  0x0100\n  exp\n  dup2\n  sload\n  dup2\n  0xffffffffffffffffffffffffffffffffffffffff\n  mul\n  not\n  and\n  swap1\n  dup4\n  0xffffffffffffffffffffffffffffffffffffffff\n  and\n  mul\n  or\n  swap1\n  sstore\n  pop\n    /* \"contracts/Demo.sol\":3047:4124  contract Testing{... */\n  dataSize(sub_0)\n  dup1\n  dataOffset(sub_0)\n  0x00\n  codecopy\n  0x00\n  return\nstop\n\nsub_0: assembly {\n        /* \"contracts/Demo.sol\":3047:4124  contract Testing{... */\n      mstore(0x40, 0x80)\n      jumpi(tag_1, lt(calldatasize, 0x04))\n      shr(0xe0, calldataload(0x00))\n      dup1\n      0x6d26ec18\n      eq\n      tag_2\n      jumpi\n      dup1\n      0x8da5cb5b\n      eq\n      tag_3\n      jumpi\n      dup1\n      0xdb613e81\n      eq\n      tag_4\n      jumpi\n      dup1\n      0xee4ae2c9\n      eq\n      tag_5\n      jumpi\n    tag_1:\n      0x00\n      dup1\n      revert\n        /* \"contracts/Demo.sol\":3262:3431  function receiveMoney() public payable returns(bool){... */\n    tag_2:\n      tag_6\n      tag_7\n      jump\t// in\n    tag_6:\n      mload(0x40)\n      tag_8\n      swap2\n      swap1\n      tag_9\n      jump\t// in\n    tag_8:\n      mload(0x40)\n      dup1\n      swap2\n      sub\n      swap1\n      return\n        /* \"contracts/Demo.sol\":3069:3089  address public owner */\n    tag_3:\n      callvalue\n      dup1\n      iszero\n      tag_10\n      jumpi\n      0x00\n      dup1\n      revert\n    tag_10:\n      pop\n      tag_11\n      tag_12\n      jump\t// in\n    tag_11:\n      mload(0x40)\n      tag_13\n      swap2\n      swap1\n      tag_14\n      jump\t// in\n    tag_13:\n      mload(0x40)\n      dup1\n      swap2\n      sub\n      swap1\n      return\n        /* \"contracts/Demo.sol\":3821:3991  function getAccount() public view returns(address, uint256)... */\n    tag_4:\n      callvalue\n      dup1\n      iszero\n      tag_15\n      jumpi\n      0x00\n      dup1\n      revert\n    tag_15:\n      pop\n      tag_16\n      tag_17\n      jump\t// in\n    tag_16:\n      mload(0x40)\n      tag_18\n      swap3\n      swap2\n      swap1\n      tag_19\n      jump\t// in\n    tag_18:\n      mload(0x40)\n      dup1\n      swap2\n      sub\n      swap1\n      return\n        /* \"contracts/Demo.sol\":3509:3754  function sendMoney(address payable  _account, uint256 _amount) public returns(bool){... */\n    tag_5:\n      callvalue\n      dup1\n      iszero\n      tag_20\n      jumpi\n      0x00\n      dup1\n      revert\n    tag_20:\n      pop\n      tag_21\n      0x04\n      dup1\n      calldatasize\n      sub\n      dup2\n      add\n      swap1\n      tag_22\n      swap2\n      swap1\n      tag_23\n      jump\t// in\n    tag_22:\n      tag_24\n      jump\t// in\n    tag_21:\n      mload(0x40)\n      tag_25\n      swap2\n      swap1\n      tag_9\n      jump\t// in\n    tag_25:\n      mload(0x40)\n      dup1\n      swap2\n      sub\n      swap1\n      return\n        /* \"contracts/Demo.sol\":3262:3431  function receiveMoney() public payable returns(bool){... */\n    tag_7:\n        /* \"contracts/Demo.sol\":3309:3313  bool */\n      0x00\n        /* \"contracts/Demo.sol\":3344:3351  0 ether */\n      dup1\n        /* \"contracts/Demo.sol\":3332:3341  msg.value */\n      callvalue\n        /* \"contracts/Demo.sol\":3332:3351  msg.value > 0 ether */\n      gt\n        /* \"contracts/Demo.sol\":3324:3370  require(msg.value > 0 ether, \"Add Some Money\") */\n      tag_27\n      jumpi\n      mload(0x40)\n      0x08c379a000000000000000000000000000000000000000000000000000000000\n      dup2\n      mstore\n      0x04\n      add\n      tag_28\n      swap1\n      tag_29\n      jump\t// in\n    tag_28:\n      mload(0x40)\n      dup1\n      swap2\n      sub\n      swap1\n      revert\n    tag_27:\n        /* \"contracts/Demo.sol\":3420:3424  true */\n      0x01\n        /* \"contracts/Demo.sol\":3413:3424  return true */\n      swap1\n      pop\n        /* \"contracts/Demo.sol\":3262:3431  function receiveMoney() public payable returns(bool){... */\n      swap1\n      jump\t// out\n        /* \"contracts/Demo.sol\":3069:3089  address public owner */\n    tag_12:\n      0x00\n      dup1\n      sload\n      swap1\n      0x0100\n      exp\n      swap1\n      div\n      0xffffffffffffffffffffffffffffffffffffffff\n      and\n      dup2\n      jump\t// out\n        /* \"contracts/Demo.sol\":3821:3991  function getAccount() public view returns(address, uint256)... */\n    tag_17:\n        /* \"contracts/Demo.sol\":3863:3870  address */\n      0x00\n        /* \"contracts/Demo.sol\":3872:3879  uint256 */\n      dup1\n        /* \"contracts/Demo.sol\":3895:3906  address acc */\n      0x00\n        /* \"contracts/Demo.sol\":3917:3921  this */\n      address\n        /* \"contracts/Demo.sol\":3895:3922  address acc = address(this) */\n      swap1\n      pop\n        /* \"contracts/Demo.sol\":3932:3943  uint256 bal */\n      0x00\n        /* \"contracts/Demo.sol\":3946:3949  acc */\n      dup2\n        /* \"contracts/Demo.sol\":3946:3957  acc.balance */\n      0xffffffffffffffffffffffffffffffffffffffff\n      and\n      balance\n        /* \"contracts/Demo.sol\":3932:3957  uint256 bal = acc.balance */\n      swap1\n      pop\n        /* \"contracts/Demo.sol\":3975:3978  acc */\n      dup2\n        /* \"contracts/Demo.sol\":3980:3983  bal */\n      dup2\n        /* \"contracts/Demo.sol\":3968:3984  return(acc, bal) */\n      swap4\n      pop\n      swap4\n      pop\n      pop\n      pop\n        /* \"contracts/Demo.sol\":3821:3991  function getAccount() public view returns(address, uint256)... */\n      swap1\n      swap2\n      jump\t// out\n        /* \"contracts/Demo.sol\":3509:3754  function sendMoney(address payable  _account, uint256 _amount) public returns(bool){... */\n    tag_24:\n        /* \"contracts/Demo.sol\":3587:3591  bool */\n      0x00\n        /* \"contracts/Demo.sol\":3635:3642  _amount */\n      dup2\n        /* \"contracts/Demo.sol\":3610:3631  address(this).balance */\n      selfbalance\n        /* \"contracts/Demo.sol\":3610:3642  address(this).balance  > _amount */\n      gt\n        /* \"contracts/Demo.sol\":3602:3665  require(address(this).balance  > _amount, \"Insufficient Funds\") */\n      tag_32\n      jumpi\n      mload(0x40)\n      0x08c379a000000000000000000000000000000000000000000000000000000000\n      dup2\n      mstore\n      0x04\n      add\n      tag_33\n      swap1\n      tag_34\n      jump\t// in\n    tag_33:\n      mload(0x40)\n      dup1\n      swap2\n      sub\n      swap1\n      revert\n    tag_32:\n        /* \"contracts/Demo.sol\":3675:3683  _account */\n      dup3\n        /* \"contracts/Demo.sol\":3675:3692  _account.transfer */\n      0xffffffffffffffffffffffffffffffffffffffff\n      and\n        /* \"contracts/Demo.sol\":3675:3701  _account.transfer(_amount) */\n      0x08fc\n        /* \"contracts/Demo.sol\":3693:3700  _amount */\n      dup4\n        /* \"contracts/Demo.sol\":3675:3701  _account.transfer(_amount) */\n      swap1\n      dup2\n      iszero\n      mul\n      swap1\n      mload(0x40)\n      0x00\n      mload(0x40)\n      dup1\n      dup4\n      sub\n      dup2\n      dup6\n      dup9\n      dup9\n      call\n      swap4\n      pop\n      pop\n      pop\n      pop\n      iszero\n      dup1\n      iszero\n      tag_36\n      jumpi\n      returndatasize\n      0x00\n      dup1\n      returndatacopy\n      revert(0x00, returndatasize)\n    tag_36:\n      pop\n        /* \"contracts/Demo.sol\":3743:3747  true */\n      0x01\n        /* \"contracts/Demo.sol\":3736:3747  return true */\n      swap1\n      pop\n        /* \"contracts/Demo.sol\":3509:3754  function sendMoney(address payable  _account, uint256 _amount) public returns(bool){... */\n      swap3\n      swap2\n      pop\n      pop\n      jump\t// out\n        /* \"#utility.yul\":7:162   */\n    tag_38:\n        /* \"#utility.yul\":61:66   */\n      0x00\n        /* \"#utility.yul\":99:105   */\n      dup2\n        /* \"#utility.yul\":86:106   */\n      calldataload\n        /* \"#utility.yul\":77:106   */\n      swap1\n      pop\n        /* \"#utility.yul\":115:156   */\n      tag_40\n        /* \"#utility.yul\":150:155   */\n      dup2\n        /* \"#utility.yul\":115:156   */\n      tag_41\n      jump\t// in\n    tag_40:\n        /* \"#utility.yul\":7:162   */\n      swap3\n      swap2\n      pop\n      pop\n      jump\t// out\n        /* \"#utility.yul\":168:307   */\n    tag_42:\n        /* \"#utility.yul\":214:219   */\n      0x00\n        /* \"#utility.yul\":252:258   */\n      dup2\n        /* \"#utility.yul\":239:259   */\n      calldataload\n        /* \"#utility.yul\":230:259   */\n      swap1\n      pop\n        /* \"#utility.yul\":268:301   */\n      tag_44\n        /* \"#utility.yul\":295:300   */\n      dup2\n        /* \"#utility.yul\":268:301   */\n      tag_45\n      jump\t// in\n    tag_44:\n        /* \"#utility.yul\":168:307   */\n      swap3\n      swap2\n      pop\n      pop\n      jump\t// out\n        /* \"#utility.yul\":313:803   */\n    tag_23:\n        /* \"#utility.yul\":389:395   */\n      0x00\n        /* \"#utility.yul\":397:403   */\n      dup1\n        /* \"#utility.yul\":446:448   */\n      0x40\n        /* \"#utility.yul\":434:443   */\n      dup4\n        /* \"#utility.yul\":425:432   */\n      dup6\n        /* \"#utility.yul\":421:444   */\n      sub\n        /* \"#utility.yul\":417:449   */\n      slt\n        /* \"#utility.yul\":414:533   */\n      iszero\n      tag_47\n      jumpi\n        /* \"#utility.yul\":452:531   */\n      tag_48\n      tag_49\n      jump\t// in\n    tag_48:\n        /* \"#utility.yul\":414:533   */\n    tag_47:\n        /* \"#utility.yul\":572:573   */\n      0x00\n        /* \"#utility.yul\":597:658   */\n      tag_50\n        /* \"#utility.yul\":650:657   */\n      dup6\n        /* \"#utility.yul\":641:647   */\n      dup3\n        /* \"#utility.yul\":630:639   */\n      dup7\n        /* \"#utility.yul\":626:648   */\n      add\n        /* \"#utility.yul\":597:658   */\n      tag_38\n      jump\t// in\n    tag_50:\n        /* \"#utility.yul\":587:658   */\n      swap3\n      pop\n        /* \"#utility.yul\":543:668   */\n      pop\n        /* \"#utility.yul\":707:709   */\n      0x20\n        /* \"#utility.yul\":733:786   */\n      tag_51\n        /* \"#utility.yul\":778:785   */\n      dup6\n        /* \"#utility.yul\":769:775   */\n      dup3\n        /* \"#utility.yul\":758:767   */\n      dup7\n        /* \"#utility.yul\":754:776   */\n      add\n        /* \"#utility.yul\":733:786   */\n      tag_42\n      jump\t// in\n    tag_51:\n        /* \"#utility.yul\":723:786   */\n      swap2\n      pop\n        /* \"#utility.yul\":678:796   */\n      pop\n        /* \"#utility.yul\":313:803   */\n      swap3\n      pop\n      swap3\n      swap1\n      pop\n      jump\t// out\n        /* \"#utility.yul\":809:927   */\n    tag_52:\n        /* \"#utility.yul\":896:920   */\n      tag_54\n        /* \"#utility.yul\":914:919   */\n      dup2\n        /* \"#utility.yul\":896:920   */\n      tag_55\n      jump\t// in\n    tag_54:\n        /* \"#utility.yul\":891:894   */\n      dup3\n        /* \"#utility.yul\":884:921   */\n      mstore\n        /* \"#utility.yul\":809:927   */\n      pop\n      pop\n      jump\t// out\n        /* \"#utility.yul\":933:1042   */\n    tag_56:\n        /* \"#utility.yul\":1014:1035   */\n      tag_58\n        /* \"#utility.yul\":1029:1034   */\n      dup2\n        /* \"#utility.yul\":1014:1035   */\n      tag_59\n      jump\t// in\n    tag_58:\n        /* \"#utility.yul\":1009:1012   */\n      dup3\n        /* \"#utility.yul\":1002:1036   */\n      mstore\n        /* \"#utility.yul\":933:1042   */\n      pop\n      pop\n      jump\t// out\n        /* \"#utility.yul\":1048:1414   */\n    tag_60:\n        /* \"#utility.yul\":1190:1193   */\n      0x00\n        /* \"#utility.yul\":1211:1278   */\n      tag_62\n        /* \"#utility.yul\":1275:1277   */\n      0x12\n        /* \"#utility.yul\":1270:1273   */\n      dup4\n        /* \"#utility.yul\":1211:1278   */\n      tag_63\n      jump\t// in\n    tag_62:\n        /* \"#utility.yul\":1204:1278   */\n      swap2\n      pop\n        /* \"#utility.yul\":1287:1380   */\n      tag_64\n        /* \"#utility.yul\":1376:1379   */\n      dup3\n        /* \"#utility.yul\":1287:1380   */\n      tag_65\n      jump\t// in\n    tag_64:\n        /* \"#utility.yul\":1405:1407   */\n      0x20\n        /* \"#utility.yul\":1400:1403   */\n      dup3\n        /* \"#utility.yul\":1396:1408   */\n      add\n        /* \"#utility.yul\":1389:1408   */\n      swap1\n      pop\n        /* \"#utility.yul\":1048:1414   */\n      swap2\n      swap1\n      pop\n      jump\t// out\n        /* \"#utility.yul\":1420:1786   */\n    tag_66:\n        /* \"#utility.yul\":1562:1565   */\n      0x00\n        /* \"#utility.yul\":1583:1650   */\n      tag_68\n        /* \"#utility.yul\":1647:1649   */\n      0x0e\n        /* \"#utility.yul\":1642:1645   */\n      dup4\n        /* \"#utility.yul\":1583:1650   */\n      tag_63\n      jump\t// in\n    tag_68:\n        /* \"#utility.yul\":1576:1650   */\n      swap2\n      pop\n        /* \"#utility.yul\":1659:1752   */\n      tag_69\n        /* \"#utility.yul\":1748:1751   */\n      dup3\n        /* \"#utility.yul\":1659:1752   */\n      tag_70\n      jump\t// in\n    tag_69:\n        /* \"#utility.yul\":1777:1779   */\n      0x20\n        /* \"#utility.yul\":1772:1775   */\n      dup3\n        /* \"#utility.yul\":1768:1780   */\n      add\n        /* \"#utility.yul\":1761:1780   */\n      swap1\n      pop\n        /* \"#utility.yul\":1420:1786   */\n      swap2\n      swap1\n      pop\n      jump\t// out\n        /* \"#utility.yul\":1792:1910   */\n    tag_71:\n        /* \"#utility.yul\":1879:1903   */\n      tag_73\n        /* \"#utility.yul\":1897:1902   */\n      dup2\n        /* \"#utility.yul\":1879:1903   */\n      tag_74\n      jump\t// in\n    tag_73:\n        /* \"#utility.yul\":1874:1877   */\n      dup3\n        /* \"#utility.yul\":1867:1904   */\n      mstore\n        /* \"#utility.yul\":1792:1910   */\n      pop\n      pop\n      jump\t// out\n        /* \"#utility.yul\":1916:2138   */\n    tag_14:\n        /* \"#utility.yul\":2009:2013   */\n      0x00\n        /* \"#utility.yul\":2047:2049   */\n      0x20\n        /* \"#utility.yul\":2036:2045   */\n      dup3\n        /* \"#utility.yul\":2032:2050   */\n      add\n        /* \"#utility.yul\":2024:2050   */\n      swap1\n      pop\n        /* \"#utility.yul\":2060:2131   */\n      tag_76\n        /* \"#utility.yul\":2128:2129   */\n      0x00\n        /* \"#utility.yul\":2117:2126   */\n      dup4\n        /* \"#utility.yul\":2113:2130   */\n      add\n        /* \"#utility.yul\":2104:2110   */\n      dup5\n        /* \"#utility.yul\":2060:2131   */\n      tag_52\n      jump\t// in\n    tag_76:\n        /* \"#utility.yul\":1916:2138   */\n      swap3\n      swap2\n      pop\n      pop\n      jump\t// out\n        /* \"#utility.yul\":2144:2476   */\n    tag_19:\n        /* \"#utility.yul\":2265:2269   */\n      0x00\n        /* \"#utility.yul\":2303:2305   */\n      0x40\n        /* \"#utility.yul\":2292:2301   */\n      dup3\n        /* \"#utility.yul\":2288:2306   */\n      add\n        /* \"#utility.yul\":2280:2306   */\n      swap1\n      pop\n        /* \"#utility.yul\":2316:2387   */\n      tag_78\n        /* \"#utility.yul\":2384:2385   */\n      0x00\n        /* \"#utility.yul\":2373:2382   */\n      dup4\n        /* \"#utility.yul\":2369:2386   */\n      add\n        /* \"#utility.yul\":2360:2366   */\n      dup6\n        /* \"#utility.yul\":2316:2387   */\n      tag_52\n      jump\t// in\n    tag_78:\n        /* \"#utility.yul\":2397:2469   */\n      tag_79\n        /* \"#utility.yul\":2465:2467   */\n      0x20\n        /* \"#utility.yul\":2454:2463   */\n      dup4\n        /* \"#utility.yul\":2450:2468   */\n      add\n        /* \"#utility.yul\":2441:2447   */\n      dup5\n        /* \"#utility.yul\":2397:2469   */\n      tag_71\n      jump\t// in\n    tag_79:\n        /* \"#utility.yul\":2144:2476   */\n      swap4\n      swap3\n      pop\n      pop\n      pop\n      jump\t// out\n        /* \"#utility.yul\":2482:2692   */\n    tag_9:\n        /* \"#utility.yul\":2569:2573   */\n      0x00\n        /* \"#utility.yul\":2607:2609   */\n      0x20\n        /* \"#utility.yul\":2596:2605   */\n      dup3\n        /* \"#utility.yul\":2592:2610   */\n      add\n        /* \"#utility.yul\":2584:2610   */\n      swap1\n      pop\n        /* \"#utility.yul\":2620:2685   */\n      tag_81\n        /* \"#utility.yul\":2682:2683   */\n      0x00\n        /* \"#utility.yul\":2671:2680   */\n      dup4\n        /* \"#utility.yul\":2667:2684   */\n      add\n        /* \"#utility.yul\":2658:2664   */\n      dup5\n        /* \"#utility.yul\":2620:2685   */\n      tag_56\n      jump\t// in\n    tag_81:\n        /* \"#utility.yul\":2482:2692   */\n      swap3\n      swap2\n      pop\n      pop\n      jump\t// out\n        /* \"#utility.yul\":2698:3117   */\n    tag_34:\n        /* \"#utility.yul\":2864:2868   */\n      0x00\n        /* \"#utility.yul\":2902:2904   */\n      0x20\n        /* \"#utility.yul\":2891:2900   */\n      dup3\n        /* \"#utility.yul\":2887:2905   */\n      add\n        /* \"#utility.yul\":2879:2905   */\n      swap1\n      pop\n        /* \"#utility.yul\":2951:2960   */\n      dup2\n        /* \"#utility.yul\":2945:2949   */\n      dup2\n        /* \"#utility.yul\":2941:2961   */\n      sub\n        /* \"#utility.yul\":2937:2938   */\n      0x00\n        /* \"#utility.yul\":2926:2935   */\n      dup4\n        /* \"#utility.yul\":2922:2939   */\n      add\n        /* \"#utility.yul\":2915:2962   */\n      mstore\n        /* \"#utility.yul\":2979:3110   */\n      tag_83\n        /* \"#utility.yul\":3105:3109   */\n      dup2\n        /* \"#utility.yul\":2979:3110   */\n      tag_60\n      jump\t// in\n    tag_83:\n        /* \"#utility.yul\":2971:3110   */\n      swap1\n      pop\n        /* \"#utility.yul\":2698:3117   */\n      swap2\n      swap1\n      pop\n      jump\t// out\n        /* \"#utility.yul\":3123:3542   */\n    tag_29:\n        /* \"#utility.yul\":3289:3293   */\n      0x00\n        /* \"#utility.yul\":3327:3329   */\n      0x20\n        /* \"#utility.yul\":3316:3325   */\n      dup3\n        /* \"#utility.yul\":3312:3330   */\n      add\n        /* \"#utility.yul\":3304:3330   */\n      swap1\n      pop\n        /* \"#utility.yul\":3376:3385   */\n      dup2\n        /* \"#utility.yul\":3370:3374   */\n      dup2\n        /* \"#utility.yul\":3366:3386   */\n      sub\n        /* \"#utility.yul\":3362:3363   */\n      0x00\n        /* \"#utility.yul\":3351:3360   */\n      dup4\n        /* \"#utility.yul\":3347:3364   */\n      add\n        /* \"#utility.yul\":3340:3387   */\n      mstore\n        /* \"#utility.yul\":3404:3535   */\n      tag_85\n        /* \"#utility.yul\":3530:3534   */\n      dup2\n        /* \"#utility.yul\":3404:3535   */\n      tag_66\n      jump\t// in\n    tag_85:\n        /* \"#utility.yul\":3396:3535   */\n      swap1\n      pop\n        /* \"#utility.yul\":3123:3542   */\n      swap2\n      swap1\n      pop\n      jump\t// out\n        /* \"#utility.yul\":3629:3798   */\n    tag_63:\n        /* \"#utility.yul\":3713:3724   */\n      0x00\n        /* \"#utility.yul\":3747:3753   */\n      dup3\n        /* \"#utility.yul\":3742:3745   */\n      dup3\n        /* \"#utility.yul\":3735:3754   */\n      mstore\n        /* \"#utility.yul\":3787:3791   */\n      0x20\n        /* \"#utility.yul\":3782:3785   */\n      dup3\n        /* \"#utility.yul\":3778:3792   */\n      add\n        /* \"#utility.yul\":3763:3792   */\n      swap1\n      pop\n        /* \"#utility.yul\":3629:3798   */\n      swap3\n      swap2\n      pop\n      pop\n      jump\t// out\n        /* \"#utility.yul\":3804:3900   */\n    tag_55:\n        /* \"#utility.yul\":3841:3848   */\n      0x00\n        /* \"#utility.yul\":3870:3894   */\n      tag_90\n        /* \"#utility.yul\":3888:3893   */\n      dup3\n        /* \"#utility.yul\":3870:3894   */\n      tag_91\n      jump\t// in\n    tag_90:\n        /* \"#utility.yul\":3859:3894   */\n      swap1\n      pop\n        /* \"#utility.yul\":3804:3900   */\n      swap2\n      swap1\n      pop\n      jump\t// out\n        /* \"#utility.yul\":3906:4010   */\n    tag_92:\n        /* \"#utility.yul\":3951:3958   */\n      0x00\n        /* \"#utility.yul\":3980:4004   */\n      tag_94\n        /* \"#utility.yul\":3998:4003   */\n      dup3\n        /* \"#utility.yul\":3980:4004   */\n      tag_91\n      jump\t// in\n    tag_94:\n        /* \"#utility.yul\":3969:4004   */\n      swap1\n      pop\n        /* \"#utility.yul\":3906:4010   */\n      swap2\n      swap1\n      pop\n      jump\t// out\n        /* \"#utility.yul\":4016:4106   */\n    tag_59:\n        /* \"#utility.yul\":4050:4057   */\n      0x00\n        /* \"#utility.yul\":4093:4098   */\n      dup2\n        /* \"#utility.yul\":4086:4099   */\n      iszero\n        /* \"#utility.yul\":4079:4100   */\n      iszero\n        /* \"#utility.yul\":4068:4100   */\n      swap1\n      pop\n        /* \"#utility.yul\":4016:4106   */\n      swap2\n      swap1\n      pop\n      jump\t// out\n        /* \"#utility.yul\":4112:4238   */\n    tag_91:\n        /* \"#utility.yul\":4149:4156   */\n      0x00\n        /* \"#utility.yul\":4189:4231   */\n      0xffffffffffffffffffffffffffffffffffffffff\n        /* \"#utility.yul\":4182:4187   */\n      dup3\n        /* \"#utility.yul\":4178:4232   */\n      and\n        /* \"#utility.yul\":4167:4232   */\n      swap1\n      pop\n        /* \"#utility.yul\":4112:4238   */\n      swap2\n      swap1\n      pop\n      jump\t// out\n        /* \"#utility.yul\":4244:4321   */\n    tag_74:\n        /* \"#utility.yul\":4281:4288   */\n      0x00\n        /* \"#utility.yul\":4310:4315   */\n      dup2\n        /* \"#utility.yul\":4299:4315   */\n      swap1\n      pop\n        /* \"#utility.yul\":4244:4321   */\n      swap2\n      swap1\n      pop\n      jump\t// out\n        /* \"#utility.yul\":4450:4567   */\n    tag_49:\n        /* \"#utility.yul\":4559:4560   */\n      0x00\n        /* \"#utility.yul\":4556:4557   */\n      dup1\n        /* \"#utility.yul\":4549:4561   */\n      revert\n        /* \"#utility.yul\":4573:4741   */\n    tag_65:\n        /* \"#utility.yul\":4713:4733   */\n      0x496e73756666696369656e742046756e64730000000000000000000000000000\n        /* \"#utility.yul\":4709:4710   */\n      0x00\n        /* \"#utility.yul\":4701:4707   */\n      dup3\n        /* \"#utility.yul\":4697:4711   */\n      add\n        /* \"#utility.yul\":4690:4734   */\n      mstore\n        /* \"#utility.yul\":4573:4741   */\n      pop\n      jump\t// out\n        /* \"#utility.yul\":4747:4911   */\n    tag_70:\n        /* \"#utility.yul\":4887:4903   */\n      0x41646420536f6d65204d6f6e6579000000000000000000000000000000000000\n        /* \"#utility.yul\":4883:4884   */\n      0x00\n        /* \"#utility.yul\":4875:4881   */\n      dup3\n        /* \"#utility.yul\":4871:4885   */\n      add\n        /* \"#utility.yul\":4864:4904   */\n      mstore\n        /* \"#utility.yul\":4747:4911   */\n      pop\n      jump\t// out\n        /* \"#utility.yul\":4917:5055   */\n    tag_41:\n        /* \"#utility.yul\":4998:5030   */\n      tag_104\n        /* \"#utility.yul\":5024:5029   */\n      dup2\n        /* \"#utility.yul\":4998:5030   */\n      tag_92\n      jump\t// in\n    tag_104:\n        /* \"#utility.yul\":4991:4996   */\n      dup2\n        /* \"#utility.yul\":4988:5031   */\n      eq\n        /* \"#utility.yul\":4978:5049   */\n      tag_105\n      jumpi\n        /* \"#utility.yul\":5045:5046   */\n      0x00\n        /* \"#utility.yul\":5042:5043   */\n      dup1\n        /* \"#utility.yul\":5035:5047   */\n      revert\n        /* \"#utility.yul\":4978:5049   */\n    tag_105:\n        /* \"#utility.yul\":4917:5055   */\n      pop\n      jump\t// out\n        /* \"#utility.yul\":5061:5183   */\n    tag_45:\n        /* \"#utility.yul\":5134:5158   */\n      tag_107\n        /* \"#utility.yul\":5152:5157   */\n      dup2\n        /* \"#utility.yul\":5134:5158   */\n      tag_74\n      jump\t// in\n    tag_107:\n        /* \"#utility.yul\":5127:5132   */\n      dup2\n        /* \"#utility.yul\":5124:5159   */\n      eq\n        /* \"#utility.yul\":5114:5177   */\n      tag_108\n      jumpi\n        /* \"#utility.yul\":5173:5174   */\n      0x00\n        /* \"#utility.yul\":5170:5171   */\n      dup1\n        /* \"#utility.yul\":5163:5175   */\n      revert\n        /* \"#utility.yul\":5114:5177   */\n    tag_108:\n        /* \"#utility.yul\":5061:5183   */\n      pop\n      jump\t// out\n\n    auxdata: 0xa264697066735822122021a74d58c069d40c6aa02d14f8cdf1c4d59f896c67b9aa26b8d5463ee0ffdd1964736f6c63430008070033\n}\n",
				"bytecode": {
					"linkReferences": {},
					"object": "608060405234801561001057600080fd5b50336000806101000a81548173ffffffffffffffffffffffffffffffffffffffff021916908373ffffffffffffffffffffffffffffffffffffffff1602179055506104cc806100606000396000f3fe60806040526004361061003f5760003560e01c80636d26ec18146100445780638da5cb5b14610062578063db613e811461008d578063ee4ae2c9146100b9575b600080fd5b61004c6100f6565b604051610059919061034b565b60405180910390f35b34801561006e57600080fd5b50610077610141565b6040516100849190610307565b60405180910390f35b34801561009957600080fd5b506100a2610165565b6040516100b0929190610322565b60405180910390f35b3480156100c557600080fd5b506100e060048036038101906100db9190610254565b610195565b6040516100ed919061034b565b60405180910390f35b600080341161013a576040517f08c379a000000000000000000000000000000000000000000000000000000000815260040161013190610386565b60405180910390fd5b6001905090565b60008054906101000a900473ffffffffffffffffffffffffffffffffffffffff1681565b600080600030905060008173ffffffffffffffffffffffffffffffffffffffff1631905081819350935050509091565b60008147116101d9576040517f08c379a00000000000000000000000000000000000000000000000000000000081526004016101d090610366565b60405180910390fd5b8273ffffffffffffffffffffffffffffffffffffffff166108fc839081150290604051600060405180830381858888f1935050505015801561021f573d6000803e3d6000fd5b506001905092915050565b60008135905061023981610468565b92915050565b60008135905061024e8161047f565b92915050565b6000806040838503121561026b5761026a610411565b5b60006102798582860161022a565b925050602061028a8582860161023f565b9150509250929050565b61029d816103b7565b82525050565b6102ac816103db565b82525050565b60006102bf6012836103a6565b91506102ca82610416565b602082019050919050565b60006102e2600e836103a6565b91506102ed8261043f565b602082019050919050565b61030181610407565b82525050565b600060208201905061031c6000830184610294565b92915050565b60006040820190506103376000830185610294565b61034460208301846102f8565b9392505050565b600060208201905061036060008301846102a3565b92915050565b6000602082019050818103600083015261037f816102b2565b9050919050565b6000602082019050818103600083015261039f816102d5565b9050919050565b600082825260208201905092915050565b60006103c2826103e7565b9050919050565b60006103d4826103e7565b9050919050565b60008115159050919050565b600073ffffffffffffffffffffffffffffffffffffffff82169050919050565b6000819050919050565b600080fd5b7f496e73756666696369656e742046756e64730000000000000000000000000000600082015250565b7f41646420536f6d65204d6f6e6579000000000000000000000000000000000000600082015250565b610471816103c9565b811461047c57600080fd5b50565b61048881610407565b811461049357600080fd5b5056fea264697066735822122021a74d58c069d40c6aa02d14f8cdf1c4d59f896c67b9aa26b8d5463ee0ffdd1964736f6c63430008070033",
					"opcodes": "PUSH1 0x80 PUSH1 0x40 MSTORE CALLVALUE DUP1 ISZERO PUSH2 0x10 JUMPI PUSH1 0x0 DUP1 REVERT JUMPDEST POP CALLER PUSH1 0x0 DUP1 PUSH2 0x100 EXP DUP2 SLOAD DUP2 PUSH20 0xFFFFFFFFFFFFFFFFFFFFFFFFFFFFFFFFFFFFFFFF MUL NOT AND SWAP1 DUP4 PUSH20 0xFFFFFFFFFFFFFFFFFFFFFFFFFFFFFFFFFFFFFFFF AND MUL OR SWAP1 SSTORE POP PUSH2 0x4CC DUP1 PUSH2 0x60 PUSH1 0x0 CODECOPY PUSH1 0x0 RETURN INVALID PUSH1 0x80 PUSH1 0x40 MSTORE PUSH1 0x4 CALLDATASIZE LT PUSH2 0x3F JUMPI PUSH1 0x0 CALLDATALOAD PUSH1 0xE0 SHR DUP1 PUSH4 0x6D26EC18 EQ PUSH2 0x44 JUMPI DUP1 PUSH4 0x8DA5CB5B EQ PUSH2 0x62 JUMPI DUP1 PUSH4 0xDB613E81 EQ PUSH2 0x8D JUMPI DUP1 PUSH4 0xEE4AE2C9 EQ PUSH2 0xB9 JUMPI JUMPDEST PUSH1 0x0 DUP1 REVERT JUMPDEST PUSH2 0x4C PUSH2 0xF6 JUMP JUMPDEST PUSH1 0x40 MLOAD PUSH2 0x59 SWAP2 SWAP1 PUSH2 0x34B JUMP JUMPDEST PUSH1 0x40 MLOAD DUP1 SWAP2 SUB SWAP1 RETURN JUMPDEST CALLVALUE DUP1 ISZERO PUSH2 0x6E JUMPI PUSH1 0x0 DUP1 REVERT JUMPDEST POP PUSH2 0x77 PUSH2 0x141 JUMP JUMPDEST PUSH1 0x40 MLOAD PUSH2 0x84 SWAP2 SWAP1 PUSH2 0x307 JUMP JUMPDEST PUSH1 0x40 MLOAD DUP1 SWAP2 SUB SWAP1 RETURN JUMPDEST CALLVALUE DUP1 ISZERO PUSH2 0x99 JUMPI PUSH1 0x0 DUP1 REVERT JUMPDEST POP PUSH2 0xA2 PUSH2 0x165 JUMP JUMPDEST PUSH1 0x40 MLOAD PUSH2 0xB0 SWAP3 SWAP2 SWAP1 PUSH2 0x322 JUMP JUMPDEST PUSH1 0x40 MLOAD DUP1 SWAP2 SUB SWAP1 RETURN JUMPDEST CALLVALUE DUP1 ISZERO PUSH2 0xC5 JUMPI PUSH1 0x0 DUP1 REVERT JUMPDEST POP PUSH2 0xE0 PUSH1 0x4 DUP1 CALLDATASIZE SUB DUP2 ADD SWAP1 PUSH2 0xDB SWAP2 SWAP1 PUSH2 0x254 JUMP JUMPDEST PUSH2 0x195 JUMP JUMPDEST PUSH1 0x40 MLOAD PUSH2 0xED SWAP2 SWAP1 PUSH2 0x34B JUMP JUMPDEST PUSH1 0x40 MLOAD DUP1 SWAP2 SUB SWAP1 RETURN JUMPDEST PUSH1 0x0 DUP1 CALLVALUE GT PUSH2 0x13A JUMPI PUSH1 0x40 MLOAD PUSH32 0x8C379A000000000000000000000000000000000000000000000000000000000 DUP2 MSTORE PUSH1 0x4 ADD PUSH2 0x131 SWAP1 PUSH2 0x386 JUMP JUMPDEST PUSH1 0x40 MLOAD DUP1 SWAP2 SUB SWAP1 REVERT JUMPDEST PUSH1 0x1 SWAP1 POP SWAP1 JUMP JUMPDEST PUSH1 0x0 DUP1 SLOAD SWAP1 PUSH2 0x100 EXP SWAP1 DIV PUSH20 0xFFFFFFFFFFFFFFFFFFFFFFFFFFFFFFFFFFFFFFFF AND DUP2 JUMP JUMPDEST PUSH1 0x0 DUP1 PUSH1 0x0 ADDRESS SWAP1 POP PUSH1 0x0 DUP2 PUSH20 0xFFFFFFFFFFFFFFFFFFFFFFFFFFFFFFFFFFFFFFFF AND BALANCE SWAP1 POP DUP2 DUP2 SWAP4 POP SWAP4 POP POP POP SWAP1 SWAP2 JUMP JUMPDEST PUSH1 0x0 DUP2 SELFBALANCE GT PUSH2 0x1D9 JUMPI PUSH1 0x40 MLOAD PUSH32 0x8C379A000000000000000000000000000000000000000000000000000000000 DUP2 MSTORE PUSH1 0x4 ADD PUSH2 0x1D0 SWAP1 PUSH2 0x366 JUMP JUMPDEST PUSH1 0x40 MLOAD DUP1 SWAP2 SUB SWAP1 REVERT JUMPDEST DUP3 PUSH20 0xFFFFFFFFFFFFFFFFFFFFFFFFFFFFFFFFFFFFFFFF AND PUSH2 0x8FC DUP4 SWAP1 DUP2 ISZERO MUL SWAP1 PUSH1 0x40 MLOAD PUSH1 0x0 PUSH1 0x40 MLOAD DUP1 DUP4 SUB DUP2 DUP6 DUP9 DUP9 CALL SWAP4 POP POP POP POP ISZERO DUP1 ISZERO PUSH2 0x21F JUMPI RETURNDATASIZE PUSH1 0x0 DUP1 RETURNDATACOPY RETURNDATASIZE PUSH1 0x0 REVERT JUMPDEST POP PUSH1 0x1 SWAP1 POP SWAP3 SWAP2 POP POP JUMP JUMPDEST PUSH1 0x0 DUP2 CALLDATALOAD SWAP1 POP PUSH2 0x239 DUP2 PUSH2 0x468 JUMP JUMPDEST SWAP3 SWAP2 POP POP JUMP JUMPDEST PUSH1 0x0 DUP2 CALLDATALOAD SWAP1 POP PUSH2 0x24E DUP2 PUSH2 0x47F JUMP JUMPDEST SWAP3 SWAP2 POP POP JUMP JUMPDEST PUSH1 0x0 DUP1 PUSH1 0x40 DUP4 DUP6 SUB SLT ISZERO PUSH2 0x26B JUMPI PUSH2 0x26A PUSH2 0x411 JUMP JUMPDEST JUMPDEST PUSH1 0x0 PUSH2 0x279 DUP6 DUP3 DUP7 ADD PUSH2 0x22A JUMP JUMPDEST SWAP3 POP POP PUSH1 0x20 PUSH2 0x28A DUP6 DUP3 DUP7 ADD PUSH2 0x23F JUMP JUMPDEST SWAP2 POP POP SWAP3 POP SWAP3 SWAP1 POP JUMP JUMPDEST PUSH2 0x29D DUP2 PUSH2 0x3B7 JUMP JUMPDEST DUP3 MSTORE POP POP JUMP JUMPDEST PUSH2 0x2AC DUP2 PUSH2 0x3DB JUMP JUMPDEST DUP3 MSTORE POP POP JUMP JUMPDEST PUSH1 0x0 PUSH2 0x2BF PUSH1 0x12 DUP4 PUSH2 0x3A6 JUMP JUMPDEST SWAP2 POP PUSH2 0x2CA DUP3 PUSH2 0x416 JUMP JUMPDEST PUSH1 0x20 DUP3 ADD SWAP1 POP SWAP2 SWAP1 POP JUMP JUMPDEST PUSH1 0x0 PUSH2 0x2E2 PUSH1 0xE DUP4 PUSH2 0x3A6 JUMP JUMPDEST SWAP2 POP PUSH2 0x2ED DUP3 PUSH2 0x43F JUMP JUMPDEST PUSH1 0x20 DUP3 ADD SWAP1 POP SWAP2 SWAP1 POP JUMP JUMPDEST PUSH2 0x301 DUP2 PUSH2 0x407 JUMP JUMPDEST DUP3 MSTORE POP POP JUMP JUMPDEST PUSH1 0x0 PUSH1 0x20 DUP3 ADD SWAP1 POP PUSH2 0x31C PUSH1 0x0 DUP4 ADD DUP5 PUSH2 0x294 JUMP JUMPDEST SWAP3 SWAP2 POP POP JUMP JUMPDEST PUSH1 0x0 PUSH1 0x40 DUP3 ADD SWAP1 POP PUSH2 0x337 PUSH1 0x0 DUP4 ADD DUP6 PUSH2 0x294 JUMP JUMPDEST PUSH2 0x344 PUSH1 0x20 DUP4 ADD DUP5 PUSH2 0x2F8 JUMP JUMPDEST SWAP4 SWAP3 POP POP POP JUMP JUMPDEST PUSH1 0x0 PUSH1 0x20 DUP3 ADD SWAP1 POP PUSH2 0x360 PUSH1 0x0 DUP4 ADD DUP5 PUSH2 0x2A3 JUMP JUMPDEST SWAP3 SWAP2 POP POP JUMP JUMPDEST PUSH1 0x0 PUSH1 0x20 DUP3 ADD SWAP1 POP DUP2 DUP2 SUB PUSH1 0x0 DUP4 ADD MSTORE PUSH2 0x37F DUP2 PUSH2 0x2B2 JUMP JUMPDEST SWAP1 POP SWAP2 SWAP1 POP JUMP JUMPDEST PUSH1 0x0 PUSH1 0x20 DUP3 ADD SWAP1 POP DUP2 DUP2 SUB PUSH1 0x0 DUP4 ADD MSTORE PUSH2 0x39F DUP2 PUSH2 0x2D5 JUMP JUMPDEST SWAP1 POP SWAP2 SWAP1 POP JUMP JUMPDEST PUSH1 0x0 DUP3 DUP3 MSTORE PUSH1 0x20 DUP3 ADD SWAP1 POP SWAP3 SWAP2 POP POP JUMP JUMPDEST PUSH1 0x0 PUSH2 0x3C2 DUP3 PUSH2 0x3E7 JUMP JUMPDEST SWAP1 POP SWAP2 SWAP1 POP JUMP JUMPDEST PUSH1 0x0 PUSH2 0x3D4 DUP3 PUSH2 0x3E7 JUMP JUMPDEST SWAP1 POP SWAP2 SWAP1 POP JUMP JUMPDEST PUSH1 0x0 DUP2 ISZERO ISZERO SWAP1 POP SWAP2 SWAP1 POP JUMP JUMPDEST PUSH1 0x0 PUSH20 0xFFFFFFFFFFFFFFFFFFFFFFFFFFFFFFFFFFFFFFFF DUP3 AND SWAP1 POP SWAP2 SWAP1 POP JUMP JUMPDEST PUSH1 0x0 DUP2 SWAP1 POP SWAP2 SWAP1 POP JUMP JUMPDEST PUSH1 0x0 DUP1 REVERT JUMPDEST PUSH32 0x496E73756666696369656E742046756E64730000000000000000000000000000 PUSH1 0x0 DUP3 ADD MSTORE POP JUMP JUMPDEST PUSH32 0x41646420536F6D65204D6F6E6579000000000000000000000000000000000000 PUSH1 0x0 DUP3 ADD MSTORE POP JUMP JUMPDEST PUSH2 0x471 DUP2 PUSH2 0x3C9 JUMP JUMPDEST DUP2 EQ PUSH2 0x47C JUMPI PUSH1 0x0 DUP1 REVERT JUMPDEST POP JUMP JUMPDEST PUSH2 0x488 DUP2 PUSH2 0x407 JUMP JUMPDEST DUP2 EQ PUSH2 0x493 JUMPI PUSH1 0x0 DUP1 REVERT JUMPDEST POP JUMP INVALID LOG2 PUSH5 0x6970667358 0x22 SLT KECCAK256 0x21 0xA7 0x4D PC 0xC0 PUSH10 0xD40C6AA02D14F8CDF1C4 0xD5 SWAP16 DUP10 PUSH13 0x67B9AA26B8D5463EE0FFDD1964 PUSH20 0x6F6C634300080700330000000000000000000000 "
				},
				"gasEstimates": {
					"creation": {
						"codeDepositCost": "245600",
						"executionCost": "24553",
						"totalCost": "270153"
					},
					"external": {
						"getAccount()": "3153",
						"owner()": "2511",
						"receiveMoney()": "412",
						"sendMoney(address,uint256)": "infinite"
					}
				},
				"methodIdentifiers": {
					"getAccount()": "db613e81",
					"owner()": "8da5cb5b",
					"receiveMoney()": "6d26ec18",
					"sendMoney(address,uint256)": "ee4ae2c9"
				}
			},
			"storageLayout": {
				"storage": [
					{
						"astId": 326,
						"contract": "contracts/Demo.sol:Testing",
						"label": "owner",
						"offset": 0,
						"slot": "0",
						"type": "t_address"
					}
				],
				"types": {
					"t_address": {
						"encoding": "inplace",
						"label": "address",
						"numberOfBytes": "20"
					}
				}
			},
			"userdoc": {
				"kind": "user",
				"methods": {},
				"version": 1
			}
		}
	}
}