{
	"data": {
		"bytecode": {
			"linkReferences": {},
			"object": "608060405234801561001057600080fd5b50610232806100206000396000f3fe608060405234801561001057600080fd5b506004361061002b5760003560e01c8063189b43e914610030575b600080fd5b61004a600480360381019061004591906100a9565b610060565b60405161005791906100f8565b60405180910390f35b60008082841361007b5783836100769190610113565b610088565b82846100879190610113565b5b90508091505092915050565b6000813590506100a3816101e5565b92915050565b600080604083850312156100c0576100bf6101e0565b5b60006100ce85828601610094565b92505060206100df85828601610094565b9150509250929050565b6100f2816101a7565b82525050565b600060208201905061010d60008301846100e9565b92915050565b600061011e826101a7565b9150610129836101a7565b9250827f800000000000000000000000000000000000000000000000000000000000000001821260008412151615610164576101636101b1565b5b827f7fffffffffffffffffffffffffffffffffffffffffffffffffffffffffffffff01821360008412161561019c5761019b6101b1565b5b828203905092915050565b6000819050919050565b7f4e487b7100000000000000000000000000000000000000000000000000000000600052601160045260246000fd5b600080fd5b6101ee816101a7565b81146101f957600080fd5b5056fea2646970667358221220c1563809fe95481e90bf4d347ac7a6509b0ccb647dfca5417b9890cbf6c99be664736f6c63430008070033",
			"opcodes": "PUSH1 0x80 PUSH1 0x40 MSTORE CALLVALUE DUP1 ISZERO PUSH2 0x10 JUMPI PUSH1 0x0 DUP1 REVERT JUMPDEST POP PUSH2 0x232 DUP1 PUSH2 0x20 PUSH1 0x0 CODECOPY PUSH1 0x0 RETURN INVALID PUSH1 0x80 PUSH1 0x40 MSTORE CALLVALUE DUP1 ISZERO PUSH2 0x10 JUMPI PUSH1 0x0 DUP1 REVERT JUMPDEST POP PUSH1 0x4 CALLDATASIZE LT PUSH2 0x2B JUMPI PUSH1 0x0 CALLDATALOAD PUSH1 0xE0 SHR DUP1 PUSH4 0x189B43E9 EQ PUSH2 0x30 JUMPI JUMPDEST PUSH1 0x0 DUP1 REVERT JUMPDEST PUSH2 0x4A PUSH1 0x4 DUP1 CALLDATASIZE SUB DUP2 ADD SWAP1 PUSH2 0x45 SWAP2 SWAP1 PUSH2 0xA9 JUMP JUMPDEST PUSH2 0x60 JUMP JUMPDEST PUSH1 0x40 MLOAD PUSH2 0x57 SWAP2 SWAP1 PUSH2 0xF8 JUMP JUMPDEST PUSH1 0x40 MLOAD DUP1 SWAP2 SUB SWAP1 RETURN JUMPDEST PUSH1 0x0 DUP1 DUP3 DUP5 SGT PUSH2 0x7B JUMPI DUP4 DUP4 PUSH2 0x76 SWAP2 SWAP1 PUSH2 0x113 JUMP JUMPDEST PUSH2 0x88 JUMP JUMPDEST DUP3 DUP5 PUSH2 0x87 SWAP2 SWAP1 PUSH2 0x113 JUMP JUMPDEST JUMPDEST SWAP1 POP DUP1 SWAP2 POP POP SWAP3 SWAP2 POP POP JUMP JUMPDEST PUSH1 0x0 DUP2 CALLDATALOAD SWAP1 POP PUSH2 0xA3 DUP2 PUSH2 0x1E5 JUMP JUMPDEST SWAP3 SWAP2 POP POP JUMP JUMPDEST PUSH1 0x0 DUP1 PUSH1 0x40 DUP4 DUP6 SUB SLT ISZERO PUSH2 0xC0 JUMPI PUSH2 0xBF PUSH2 0x1E0 JUMP JUMPDEST JUMPDEST PUSH1 0x0 PUSH2 0xCE DUP6 DUP3 DUP7 ADD PUSH2 0x94 JUMP JUMPDEST SWAP3 POP POP PUSH1 0x20 PUSH2 0xDF DUP6 DUP3 DUP7 ADD PUSH2 0x94 JUMP JUMPDEST SWAP2 POP POP SWAP3 POP SWAP3 SWAP1 POP JUMP JUMPDEST PUSH2 0xF2 DUP2 PUSH2 0x1A7 JUMP JUMPDEST DUP3 MSTORE POP POP JUMP JUMPDEST PUSH1 0x0 PUSH1 0x20 DUP3 ADD SWAP1 POP PUSH2 0x10D PUSH1 0x0 DUP4 ADD DUP5 PUSH2 0xE9 JUMP JUMPDEST SWAP3 SWAP2 POP POP JUMP JUMPDEST PUSH1 0x0 PUSH2 0x11E DUP3 PUSH2 0x1A7 JUMP JUMPDEST SWAP2 POP PUSH2 0x129 DUP4 PUSH2 0x1A7 JUMP JUMPDEST SWAP3 POP DUP3 PUSH32 0x8000000000000000000000000000000000000000000000000000000000000000 ADD DUP3 SLT PUSH1 0x0 DUP5 SLT ISZERO AND ISZERO PUSH2 0x164 JUMPI PUSH2 0x163 PUSH2 0x1B1 JUMP JUMPDEST JUMPDEST DUP3 PUSH32 0x7FFFFFFFFFFFFFFFFFFFFFFFFFFFFFFFFFFFFFFFFFFFFFFFFFFFFFFFFFFFFFFF ADD DUP3 SGT PUSH1 0x0 DUP5 SLT AND ISZERO PUSH2 0x19C JUMPI PUSH2 0x19B PUSH2 0x1B1 JUMP JUMPDEST JUMPDEST DUP3 DUP3 SUB SWAP1 POP SWAP3 SWAP2 POP POP JUMP JUMPDEST PUSH1 0x0 DUP2 SWAP1 POP SWAP2 SWAP1 POP JUMP JUMPDEST PUSH32 0x4E487B7100000000000000000000000000000000000000000000000000000000 PUSH1 0x0 MSTORE PUSH1 0x11 PUSH1 0x4 MSTORE PUSH1 0x24 PUSH1 0x0 REVERT JUMPDEST PUSH1 0x0 DUP1 REVERT JUMPDEST PUSH2 0x1EE DUP2 PUSH2 0x1A7 JUMP JUMPDEST DUP2 EQ PUSH2 0x1F9 JUMPI PUSH1 0x0 DUP1 REVERT JUMPDEST POP JUMP INVALID LOG2 PUSH5 0x6970667358 0x22 SLT KECCAK256 0xC1 JUMP CODESIZE MULMOD INVALID SWAP6 BASEFEE 0x1E SWAP1 0xBF 0x4D CALLVALUE PUSH27 0xC7A6509B0CCB647DFCA5417B9890CBF6C99BE664736F6C63430008 SMOD STOP CALLER "
		},
		"gasEstimates": {
			"creation": {
				"codeDepositCost": "112400",
				"executionCost": "159",
				"totalCost": "112559"
			},
			"external": {
				"tenaryOpr(int256,int256)": "infinite"
			}
		},
		"methodIdentifiers": {
			"tenaryOpr(int256,int256)": "189b43e9"
		}
	},
	"abi": [
		{
			"inputs": [
				{
					"internalType": "int256",
					"name": "num1",
					"type": "int256"
				},
				{
					"internalType": "int256",
					"name": "num2",
					"type": "int256"
				}
			],
			"name": "tenaryOpr",
			"outputs": [
				{
					"internalType": "int256",
					"name": "",
					"type": "int256"
				}
			],
			"stateMutability": "pure",
			"type": "function"
		}
	]
}