{
	"data": {
		"bytecode": {
			"linkReferences": {},
			"object": "608060405234801561001057600080fd5b50610276806100206000396000f3fe608060405234801561001057600080fd5b50600436106100575760003560e01c80632cb37ae51461005c57806342c1f1c71461008c57806347857f46146100bc5780635124ecdf146100ec578063ae07ccca1461011c575b600080fd5b610076600480360381019061007191906101a4565b61014c565b60405161008391906101f3565b60405180910390f35b6100a660048036038101906100a191906101a4565b61015a565b6040516100b391906101f3565b60405180910390f35b6100d660048036038101906100d191906101a4565b610167565b6040516100e391906101f3565b60405180910390f35b610106600480360381019061010191906101a4565b610174565b60405161011391906101f3565b60405180910390f35b610136600480360381019061013191906101a4565b610181565b60405161014391906101f3565b60405180910390f35b600081831215905092915050565b6000818312905092915050565b6000818314905092915050565b6000818313905092915050565b600081831415905092915050565b60008135905061019e81610229565b92915050565b600080604083850312156101bb576101ba610224565b5b60006101c98582860161018f565b92505060206101da8582860161018f565b9150509250929050565b6101ed8161020e565b82525050565b600060208201905061020860008301846101e4565b92915050565b60008115159050919050565b6000819050919050565b600080fd5b6102328161021a565b811461023d57600080fd5b5056fea26469706673582212201b0fbb1b111fe784f24df05563044ba7513312dc90dded99e6bc610cb8428be764736f6c63430008070033",
			"opcodes": "PUSH1 0x80 PUSH1 0x40 MSTORE CALLVALUE DUP1 ISZERO PUSH2 0x10 JUMPI PUSH1 0x0 DUP1 REVERT JUMPDEST POP PUSH2 0x276 DUP1 PUSH2 0x20 PUSH1 0x0 CODECOPY PUSH1 0x0 RETURN INVALID PUSH1 0x80 PUSH1 0x40 MSTORE CALLVALUE DUP1 ISZERO PUSH2 0x10 JUMPI PUSH1 0x0 DUP1 REVERT JUMPDEST POP PUSH1 0x4 CALLDATASIZE LT PUSH2 0x57 JUMPI PUSH1 0x0 CALLDATALOAD PUSH1 0xE0 SHR DUP1 PUSH4 0x2CB37AE5 EQ PUSH2 0x5C JUMPI DUP1 PUSH4 0x42C1F1C7 EQ PUSH2 0x8C JUMPI DUP1 PUSH4 0x47857F46 EQ PUSH2 0xBC JUMPI DUP1 PUSH4 0x5124ECDF EQ PUSH2 0xEC JUMPI DUP1 PUSH4 0xAE07CCCA EQ PUSH2 0x11C JUMPI JUMPDEST PUSH1 0x0 DUP1 REVERT JUMPDEST PUSH2 0x76 PUSH1 0x4 DUP1 CALLDATASIZE SUB DUP2 ADD SWAP1 PUSH2 0x71 SWAP2 SWAP1 PUSH2 0x1A4 JUMP JUMPDEST PUSH2 0x14C JUMP JUMPDEST PUSH1 0x40 MLOAD PUSH2 0x83 SWAP2 SWAP1 PUSH2 0x1F3 JUMP JUMPDEST PUSH1 0x40 MLOAD DUP1 SWAP2 SUB SWAP1 RETURN JUMPDEST PUSH2 0xA6 PUSH1 0x4 DUP1 CALLDATASIZE SUB DUP2 ADD SWAP1 PUSH2 0xA1 SWAP2 SWAP1 PUSH2 0x1A4 JUMP JUMPDEST PUSH2 0x15A JUMP JUMPDEST PUSH1 0x40 MLOAD PUSH2 0xB3 SWAP2 SWAP1 PUSH2 0x1F3 JUMP JUMPDEST PUSH1 0x40 MLOAD DUP1 SWAP2 SUB SWAP1 RETURN JUMPDEST PUSH2 0xD6 PUSH1 0x4 DUP1 CALLDATASIZE SUB DUP2 ADD SWAP1 PUSH2 0xD1 SWAP2 SWAP1 PUSH2 0x1A4 JUMP JUMPDEST PUSH2 0x167 JUMP JUMPDEST PUSH1 0x40 MLOAD PUSH2 0xE3 SWAP2 SWAP1 PUSH2 0x1F3 JUMP JUMPDEST PUSH1 0x40 MLOAD DUP1 SWAP2 SUB SWAP1 RETURN JUMPDEST PUSH2 0x106 PUSH1 0x4 DUP1 CALLDATASIZE SUB DUP2 ADD SWAP1 PUSH2 0x101 SWAP2 SWAP1 PUSH2 0x1A4 JUMP JUMPDEST PUSH2 0x174 JUMP JUMPDEST PUSH1 0x40 MLOAD PUSH2 0x113 SWAP2 SWAP1 PUSH2 0x1F3 JUMP JUMPDEST PUSH1 0x40 MLOAD DUP1 SWAP2 SUB SWAP1 RETURN JUMPDEST PUSH2 0x136 PUSH1 0x4 DUP1 CALLDATASIZE SUB DUP2 ADD SWAP1 PUSH2 0x131 SWAP2 SWAP1 PUSH2 0x1A4 JUMP JUMPDEST PUSH2 0x181 JUMP JUMPDEST PUSH1 0x40 MLOAD PUSH2 0x143 SWAP2 SWAP1 PUSH2 0x1F3 JUMP JUMPDEST PUSH1 0x40 MLOAD DUP1 SWAP2 SUB SWAP1 RETURN JUMPDEST PUSH1 0x0 DUP2 DUP4 SLT ISZERO SWAP1 POP SWAP3 SWAP2 POP POP JUMP JUMPDEST PUSH1 0x0 DUP2 DUP4 SLT SWAP1 POP SWAP3 SWAP2 POP POP JUMP JUMPDEST PUSH1 0x0 DUP2 DUP4 EQ SWAP1 POP SWAP3 SWAP2 POP POP JUMP JUMPDEST PUSH1 0x0 DUP2 DUP4 SGT SWAP1 POP SWAP3 SWAP2 POP POP JUMP JUMPDEST PUSH1 0x0 DUP2 DUP4 EQ ISZERO SWAP1 POP SWAP3 SWAP2 POP POP JUMP JUMPDEST PUSH1 0x0 DUP2 CALLDATALOAD SWAP1 POP PUSH2 0x19E DUP2 PUSH2 0x229 JUMP JUMPDEST SWAP3 SWAP2 POP POP JUMP JUMPDEST PUSH1 0x0 DUP1 PUSH1 0x40 DUP4 DUP6 SUB SLT ISZERO PUSH2 0x1BB JUMPI PUSH2 0x1BA PUSH2 0x224 JUMP JUMPDEST JUMPDEST PUSH1 0x0 PUSH2 0x1C9 DUP6 DUP3 DUP7 ADD PUSH2 0x18F JUMP JUMPDEST SWAP3 POP POP PUSH1 0x20 PUSH2 0x1DA DUP6 DUP3 DUP7 ADD PUSH2 0x18F JUMP JUMPDEST SWAP2 POP POP SWAP3 POP SWAP3 SWAP1 POP JUMP JUMPDEST PUSH2 0x1ED DUP2 PUSH2 0x20E JUMP JUMPDEST DUP3 MSTORE POP POP JUMP JUMPDEST PUSH1 0x0 PUSH1 0x20 DUP3 ADD SWAP1 POP PUSH2 0x208 PUSH1 0x0 DUP4 ADD DUP5 PUSH2 0x1E4 JUMP JUMPDEST SWAP3 SWAP2 POP POP JUMP JUMPDEST PUSH1 0x0 DUP2 ISZERO ISZERO SWAP1 POP SWAP2 SWAP1 POP JUMP JUMPDEST PUSH1 0x0 DUP2 SWAP1 POP SWAP2 SWAP1 POP JUMP JUMPDEST PUSH1 0x0 DUP1 REVERT JUMPDEST PUSH2 0x232 DUP2 PUSH2 0x21A JUMP JUMPDEST DUP2 EQ PUSH2 0x23D JUMPI PUSH1 0x0 DUP1 REVERT JUMPDEST POP JUMP INVALID LOG2 PUSH5 0x6970667358 0x22 SLT KECCAK256 SHL 0xF 0xBB SHL GT 0x1F 0xE7 DUP5 CALLCODE 0x4D CREATE SSTORE PUSH4 0x44BA751 CALLER SLT 0xDC SWAP1 0xDD 0xED SWAP10 0xE6 0xBC PUSH2 0xCB8 TIMESTAMP DUP12 0xE7 PUSH5 0x736F6C6343 STOP ADDMOD SMOD STOP CALLER "
		},
		"gasEstimates": {
			"creation": {
				"codeDepositCost": "126000",
				"executionCost": "171",
				"totalCost": "126171"
			},
			"external": {
				"isEqualTo(int256,int256)": "infinite",
				"isGreaterThan(int256,int256)": "infinite",
				"isGreaterThanOr(int256,int256)": "infinite",
				"isLesserThan(int256,int256)": "infinite",
				"isNotEqual(int256,int256)": "infinite"
			}
		},
		"methodIdentifiers": {
			"isEqualTo(int256,int256)": "47857f46",
			"isGreaterThan(int256,int256)": "5124ecdf",
			"isGreaterThanOr(int256,int256)": "2cb37ae5",
			"isLesserThan(int256,int256)": "42c1f1c7",
			"isNotEqual(int256,int256)": "ae07ccca"
		}
	},
	"abi": [
		{
			"inputs": [
				{
					"internalType": "int256",
					"name": "number1",
					"type": "int256"
				},
				{
					"internalType": "int256",
					"name": "number2",
					"type": "int256"
				}
			],
			"name": "isEqualTo",
			"outputs": [
				{
					"internalType": "bool",
					"name": "",
					"type": "bool"
				}
			],
			"stateMutability": "pure",
			"type": "function"
		},
		{
			"inputs": [
				{
					"internalType": "int256",
					"name": "number1",
					"type": "int256"
				},
				{
					"internalType": "int256",
					"name": "number2",
					"type": "int256"
				}
			],
			"name": "isGreaterThan",
			"outputs": [
				{
					"internalType": "bool",
					"name": "",
					"type": "bool"
				}
			],
			"stateMutability": "pure",
			"type": "function"
		},
		{
			"inputs": [
				{
					"internalType": "int256",
					"name": "number1",
					"type": "int256"
				},
				{
					"internalType": "int256",
					"name": "number2",
					"type": "int256"
				}
			],
			"name": "isGreaterThanOr",
			"outputs": [
				{
					"internalType": "bool",
					"name": "",
					"type": "bool"
				}
			],
			"stateMutability": "pure",
			"type": "function"
		},
		{
			"inputs": [
				{
					"internalType": "int256",
					"name": "number1",
					"type": "int256"
				},
				{
					"internalType": "int256",
					"name": "number2",
					"type": "int256"
				}
			],
			"name": "isLesserThan",
			"outputs": [
				{
					"internalType": "bool",
					"name": "",
					"type": "bool"
				}
			],
			"stateMutability": "pure",
			"type": "function"
		},
		{
			"inputs": [
				{
					"internalType": "int256",
					"name": "number1",
					"type": "int256"
				},
				{
					"internalType": "int256",
					"name": "number2",
					"type": "int256"
				}
			],
			"name": "isNotEqual",
			"outputs": [
				{
					"internalType": "bool",
					"name": "",
					"type": "bool"
				}
			],
			"stateMutability": "pure",
			"type": "function"
		}
	]
}